:020000040800F2
:1000000008FC002061020008FDFE000849EF00081E
:10001000F9FE00089BB900089521010800000000C6
:10002000000000000000000000000000A101000826
:10003000BDBC000800000000FD0100089516010885
:100040007B0200087B0200087B02000881FF000899
:100050007B0200087B0200087B020008E1BC00086C
:10006000EBBC0008F5BC0008FFBC00087B020008E0
:100070007B0200087B0200087B0200087B0200086C
:10008000D1B90008E1B900087B0200087B02000832
:100090007B0200087B0200087B02000809BD000803
:1000A0007B0200087B0200087B0200087B0200083C
:1000B0007B0200087B020008791701087B02000818
:1000C0007B0200087B0200087B0200087B0200081C
:1000D0007B0200087B0200087B0200087B0200080C
:1000E0007B02000801FF00087B0200087B02000879
:1000F0007B0200087B0200087B0200087B020008EC
:100100007B0200087B0200087B0200087B020008DB
:100110007B0200087B0200087B02000889170108A7
:100120007B020008F1B900087B0200087B0200088E
:100130007B0200087B0200087B0200087B020008AB
:100140007B0200087B0200087B0200087B0200089B
:100150007B02000801BA00087B0200088521010823
:100160007B0200087B0200087B0200087B0200087B
:100170007B0200087B0200087B02000800000000F0
:100180007B0200087B020008DFF810D000F078FC4A
:1001900000480047BD490108AFF3008008FC00207B
:1001A0002C4B19680868B0E8F04F80F30988BFF35A
:1001B0006F8F4FF0000080F311887047000000003F
:1001C00008480068006880F308884FF0000080F35A
:1001D000148862B661B6BFF34F8FBFF36F8F00DF35
:1001E00000BF00BF08ED00E0DFF80C00016841F43B
:1001F00070010160704700BF88ED00E0EFF30980F7
:10020000BFF36F8F134B1A681EF0100F08BF20ED5D
:10021000108A20E9F04F106009B44FF0500080F3CD
:100220001188BFF34F8FBFF36F8F17F001F84FF0B6
:10023000000080F3118809BC19680868B0E8F04F25
:100240001EF0100F08BFB0EC108A80F30988BFF3CE
:100250006F8F70476C000020EFF30580704700003F
:100260000648804706480047FEE7FEE7FEE7FEE750
:10027000FEE7FEE7FEE7FEE7FEE7FEE7651701089B
:10028000890100082DE9F05F0546002092469B4653
:1002900088460646814640241BE02846414647469C
:1002A000224600F0CEFA53465A46C01A914110D366
:1002B00011461846224600F0B5FA2D1A67EB0108E0
:1002C0004F4622460120002100F0ACFA17EB00094E
:1002D0004E41201EA4F10104DFDC484631462A4687
:1002E0004346BDE8F09F2DE9F0410024061B25465A
:1002F00071F1000605DA01240027D0EB070067EB57
:100300000101161E73F1000605DA0027D2EB070281
:10031000012567EB0303FFF7B5FF86460E46174638
:100320009C46AC4204D00025D0EB050E65EB0106DF
:1003300024B10020D2EB000760EB030C704631467D
:100340003A466346BDE8F08110B5441A034694422C
:1003500009D28418114403E011F8013D04F8013D6D
:10036000521EF9D210BD40EA0104A40703D009E0EF
:1003700010C9121F10C3042AFAD203E011F8014B6E
:1003800003F8014B521EF9D210BDD2B201E000F8C1
:10039000012B491EFBD270470022F6E710B5134629
:1003A0000A4604461946FFF7F0FF204610BD421EDC
:1003B00012F8013F002BFBD111F8013B02F8013B81
:1003C000002BF9D1704730B505462A460B4612F886
:1003D000010B13F8014B08B1A042F8D01CB1002862
:1003E00002D06D1CF1E7284630BD421C10F8011BFD
:1003F0000029FBD1801A704730B50446002003461F
:1004000000E05B1C934203D2E05CCD5C401BF8D063
:1004100030BD034611F8012B00F8012B002AF9D159
:100420001846704770B5064612F0F2FB04680546A0
:100430000A220021304600F026FA2C6070BD2DE91A
:10044000FE4F804681EA0300C00F0C46009021F069
:10045000004123F00045B8EB0200A94105D2404617
:10046000214690461C460B46024623F000401043AE
:1004700047D0270DC7F30A00C3F30A510290401A70
:10048000019040286BDAC3F3130040F4801B0098FE
:10049000924620B10023D2EB030A63EB0B0B0198C9
:1004A0005946C0F14002504600F0BCF906460D46E0
:1004B00050465946019A00F0D4F910EB080061410A
:1004C000002487EA115284EAE7731A4340D0009A65
:1004D00062B3019A012A4FEA075215DC001B61EB57
:1004E00002014FF0004202EA0752CDE90042001C2F
:1004F00041F5801132462B4600F043FA03B0BDE8C7
:10050000F08F40462146F9E7001B61EB0201001C19
:1005100041F5801300185B412018A2F5001747EB46
:10052000030140EAD570B6196D4111E06D084FEA3C
:10053000360645EAC0754FEA0752001B61EB02011F
:10054000001C41F5801149084FEA30000019514163
:1005500032462B4603B0BDE8F04F00F003BA0098D6
:10056000012240000023D0EB020263EBE07300980D
:1005700021464FEAE074B8EB000061EB0401E9E7C3
:1005800083F000435BE781F0004158E72DE9FE4F1F
:1005900081EA030404F0004421F0004100944FF08C
:1005A000000B23F0004350EA01045ED052EA03043A
:1005B0005BD0C3F30A54C1F30A552C44A4F2F334BC
:1005C0000194A0FB0254C1F3130141F48011C3F361
:1005D000130343F4801301FB024400FB034E840A1F
:1005E000970A44EA815447EA8357A4FB07680295B7
:1005F0008D0A05FB07854FEA932C04FB0C54270555
:10060000029D4FEA065847EA1637B5EB08056EEB30
:10061000070C870E920E47EA811742EA8312A7FB66
:100620000201B6EB0B0164EB00042B0D43EA0C3323
:100630005E1844EB1C50DA465146E7FB0201C5F355
:1006400013044FEA0B3343EA14534FEA0432019C7C
:1006500043EA0603A4F10C040294009CCDE900B423
:1006600000F08FF903B0BDE8F08F00200146F9E7F4
:100670002DE9F04D81EA030404F0004B21F0004520
:1006800014464FF0000A23F0004150EA050220D042
:1006900054EA01021DD0C5F30A570246C5F31303FD
:1006A000C1F31300C1F30A5640F4801543F48013DC
:1006B000A7EB0608101BD64608F2FD3873EB0500C1
:1006C00002D308F1010801E092185B41B8F1000F74
:1006D00003DA00200146BDE8F08D00204FF48011C0
:1006E000064684460EE0171B73EB050705D3121B65
:1006F00063EB050306434CEA010C49084FEA30005E
:1007000092185B4150EA0107EDD152EA030012D082
:1007100082EA040083EA0501084305D0101BAB41BF
:1007200006D20122002306E000224FF0004302E03F
:100730006FF0010253101AEB06004CEB085110EB5E
:100740000A0041EB0B01BDE8F04D00F00BB90EB50E
:1007500040F2334102910021CDE900110A460B46D7
:1007600000F00FF903B000BDC1F30A5210B5C1F398
:10077000130140F2FF3341F480119A4201DA002064
:1007800010BD40F233439A42A2F2334203DC52429C
:1007900000F057F810BD904010BD00F0004230F05E
:1007A00000400AD0C10D01F56071C0F3160042EAA5
:1007B0000151C208400711437047002001467047AD
:1007C00001F0004330B421F0004150EA010206D0AC
:1007D0000A0DA2F56072C1F31301002A02DC30BCDD
:1007E00000207047440F44EAC104C100E01830BC47
:1007F00000EBC25000F07FB830B50B460146002038
:100800002022012409E021FA02F59D4205D303FAD2
:1008100002F5491B04FA02F52844151EA2F1010253
:10082000F1DC30BD202A04DB203A00FA02F100207E
:1008300070479140C2F1200320FA03F3194390401E
:100840007047202A04DB203A21FA02F00021704789
:1008500021FA02F3D040C2F1200291400843194628
:100860007047202A06DBCB17203A41FA02F043EA10
:10087000E07306E041FA02F3D040C2F12002914059
:100880000843194670472DE9F04791460F468046C8
:100890000446002614F8015B2DB100F003F900684E
:1008A000405DC007F6D12B2D02D02D2D18D0641E2F
:1008B0004A463946204600F0F9F827B13968A14286
:1008C00001D1C7F8008071054FF002040BD54042FA
:1008D000002803DD12F09CF90460A007BDE8F08752
:1008E00046F48066E4E70028F8DA12F091F9046033
:1008F0006FF00040F2E70029A8BF7047401C490094
:1009000008BF20F00100704710B4B0FA80FC00FA74
:100910000CF050EA010404BF10BC704749B1CCF19F
:10092000200421FA04F411FA0CF118BF012121432B
:100930000843A3EB0C01CB1D4FEA00614FEA1020E6
:1009400042BF002010BC704700EBC3501044002988
:10095000A4BF10BC7047401C490008BF20F0010034
:1009600010BC704710B5141E73F1000408DA401C67
:1009700041F1000192185B411A4301D120F00100BE
:1009800010BD2DE9F04D92469B4611B1B1FA81F2AE
:1009900002E0B0FA80F220329046FFF743FF0446AF
:1009A0000F4640EA0A0041EA0B0153465A46084303
:1009B00013D0114653EA010019D0C8F14002504645
:1009C000FFF73FFF05460E46504659464246FFF7A1
:1009D00029FF084305D0012004E020463946BDE840
:1009E000F08D0020054346EAE0762C4337430A9811
:1009F0006305E40AA0EB08000022FD0A44EA47541C
:100A00000A3002D500200146E9E7010510196941C5
:100A1000DDE9084500196941BDE8F04DA2E7C1F3E1
:100A20000A52C1F3130140F2FF3341F480119A429C
:100A300002DA00200146704740F233439A42A2F2A4
:100A4000334202DC5242FFF7FCBEFFF7EBBE000070
:100A500030B5041E71F1000404DB4FF00044404245
:100A600064EB0101141E73F1000405DB1C464FF01A
:100A70000043524263EB0403994208BF904230BDE9
:100A8000064C074D06E0E06840F0010394E80700DB
:100A900098471034AC42F6D3FFF77AFBD4D506085A
:100AA000F4D506080048704750B606082DE9F05FF7
:100AB00082460078002715468B460AF10104B946A4
:100AC000302801D09DB113E014F8010B01277828DC
:100AD00003D0582801D045B10AE00DB1102D07D13F
:100AE0000027102514F8010B02E0082500E00A2574
:100AF0000026B0460EE005FB080005FB06F10127C5
:100B000001EB10461FFA80F8B6F5803F00D3B946D6
:100B100014F8010B294600F018F80028EBDABBF1B5
:100B2000000F05D00FB1641E00E05446CBF8004022
:100B3000B9F1000F06D012F06BF802210160C81E57
:100B4000BDE8F09F48EA0640FAE73A2800D230387C
:100B500020F02002412A01D3A2F13700884201D3BC
:100B60004FF0FF30704770B58C1810F8015B15F02E
:100B7000070301D110F8013B2A1106D110F8012B0F
:100B800003E010F8016B01F8016B5B1EF9D12B0734
:100B900005D40023521E0DD401F8013BFAE710F8EA
:100BA000013BCB1A921C03E013F8015B01F8015BD7
:100BB000521EF9D5A142D8D3002070BD37B5446884
:100BC00005460146204605F072FB00285CD02B68E4
:100BD0000F2B16D004DC0B2B22D00E2B32D050E082
:100BE000282B47D0B3F5107F05D0112B49D1274BC7
:100BF0001B6813B948E0264B1B68294620469847D6
:100C000042E0204600F016FE02AB43F8040D426EAF
:100C10001568184600F038FEB5B32046A84733E003
:100C2000204600F007FE02AC0190683000F06CFD39
:100C300054F8040D03216C3000F073FD204600F0E1
:100C400023FE1EE0EA680CCA0D2A02D0202A06D034
:100C500010E0002B0EDD204609F0ACFF05E0002B74
:100C600003DD204609F0A6FF0EE00221204609F030
:100C7000B9FF09E0EB6823B94FF48071204605F015
:100C8000FCFA284605F052FD03B030BDB0B9002093
:100C9000AC01002010B586B0002404940B9C039492
:100CA0000A9C0294099C0194089C009400F002F8AC
:100CB00006B010BD2DE9F04186B0984605460E46B7
:100CC000174601F089FB109C1A4B02930D9B019370
:100CD0004C340C9B0093039443463A4631462846D5
:100CE00005F060FC8046F8B100F0A4FD124E0F99AB
:100CF00005901022351D05F0BDFB06AF0FCD57F84E
:100D000004ED0EF134040FC40FCD0FC495E80F00AD
:100D100084E80F00736BCEF86430384600F0B4FD01
:100D2000736B40465B68984703F072F9404606B023
:100D3000BDE8F081BD0B0008AC0100202DE9F041B9
:100D40008B4B826853F822504368052B88B00446C9
:100D50000ED006DC002B40F00781006806F0FEFA9A
:100D600002E1062B00F08980122B00F0AA80FBE044
:100D7000EE69002E51D0AB6803936B6802932B6829
:100D80000193009610300FC803F0B6FE002655F808
:100D9000260002F0D0FEEB69A26921696069D21ACF
:100DA0001944304401F060F8EB69A2692169E069F7
:100DB000D21A1944801B01F057F8EB69E2696169A6
:100DC0002069D21A1944304401F0C4F8EB69E26991
:100DD0006169A069D21A801B1944013601F0BAF882
:100DE000022ED4D1A86802F0A6FEE96920696669DE
:100DF000E36942185B1A013A3144023001F0FCF811
:100E0000E969A2696669E369501A5B1A023A3144DA
:100E1000013001F0F1F8EE690FE055F8260002F01C
:100E20008AFE04F110000FC89B1B921B3144304412
:100E3000013601F047F8022EEFD16169E3692F69AD
:100E4000A26920690197EF6800970B44921B304418
:100E50005B10023100F0CEFF04F114010EC92069CD
:100E6000AC69019419446C6900944910023B921BCF
:100E70000131304400F0BEFF76E0006800F0DAFC9B
:100E80000490206806F010FE049B30B1A26852B9AD
:100E90001A6F003218BF012206E05A6F002A0CBFF9
:100EA0000022022200E0002203EB820304A8DD6E90
:100EB00000F0EAFC00231A462168284600F058FE9C
:100EC00052E0006800F0B6FC08AED0F8688046F842
:100ED000100DB8F1000F44D0A368B0F95C7023B1D5
:100EE000032B0CBF0223002300E0012300EB83034C
:100EF000406D1C6C02F04EFE204602F01CFE06A85F
:100F000001F030F9A98BBDF81C30BDF818205B1A30
:100F1000ADF81C30BDF81A300233ADF81A30BDF808
:100F20001E30023BADF81E30049B0A44ADF8182079
:100F3000B3F95E10B3F9602006A802F050FA30460B
:100F400000F0A2FC022002F091FE404600F072FC8C
:100F500008AC3A4644F80C0D06A900F0F3FE204612
:100F600000E0304600F090FC002008B0BDE8F081C1
:100F7000DCCC060873B50D46044628B301F02CFA04
:100F8000204600F057FC866E00906846019600F0FF
:100F90007BFC294601A804F0A7F900280CBF012515
:100FA00000250ED0019B9E4208D0204600F042FC56
:100FB000019B00908366684600F066FC204606F0C0
:100FC00000F803F025F800E00125284602B070BDC6
:100FD0000A2810B5044603D1BDE8104000F0E2BD78
:100FE0000D2810D001F0F8F9074B1B68DB6920468B
:100FF0001B689847054B1B680BB120469847BDE816
:10100000104003F005B810BD90010020F0BB002097
:101010002DE9F041D0F80C8086B0044600200E4641
:10102000174602F0ABFD0546B8F1000F05D098F861
:10103000043013B140F0020001E025F0020002F09C
:101040009DFD216969B10120638822880390029087
:10105000E0680190A06800900C6830463946A047CF
:101060001FE0DFF85080124BD8F800201B68527C3C
:10107000E06821469847E18820B9012904BFD8F8E3
:101080000030986B638822880590A0680490A0883F
:10109000029101210390019100913046394604F0FC
:1010A00013FA284606B0BDE8F04102F067BD00BF64
:1010B000800100209001002008B50E4B186802F056
:1010C0002FFD0D4B186802F036FD012002F0B0FD37
:1010D000002002F0BBFD002002F0C8FD002002F05D
:1010E0004DFD064B186802F055FD0020BDE8084094
:1010F00002F070BD8C0100208801002084010020D6
:101100004D4B2DE9F04F1A68D169CC69A389834210
:101110008BB008D8E589854205D325680695C31AA2
:101120004FF0FF3613E0A368002B7CD01D88A84247
:1011300079D35E88864276D35B6866680696401BE4
:1011400080B203EB800533F92030B5F902600993D2
:10115000581C68D091F818B0B2F92A90A17C364D8D
:10116000B2F92270B2F9248094F810A01BFB01F3AD
:101170004846079304F078FE2968079BCA69896B83
:101180000591089006991846099B00FB03100490EE
:10119000A37C039301230293D37E0193937E009358
:1011A00052465B464146384604F08EF9731C1AD00D
:1011B00049F0020004F058FE2A680699D369926B40
:1011C0000592079A02FB06160496A27C039201225E
:1011D0000292DA7E01929B7E009352465B46414624
:1011E000384604F071F92B68DB695A7E1B7E9A42FF
:1011F00015D9B9F1020F12D089F0040004F034FEC1
:101200000D4B1B68DB69187ED97E9A7E5B7E00FBE6
:10121000018143440AFB0272384604F0E9FA9DF862
:10122000200004F021FE044B617C1A68538C0B44AF
:1012300053840BB0BDE8F08F90010020044B1B6875
:10124000DB69DB6909B11A7C0A60587C704700BF12
:101250009001002002230B807047C3699A898A425B
:1012600002D8DA898A420FD2986880B103889942FD
:101270000CD342888A4209D3C91A436833F8210043
:10128000C043C0F3C0307047012070470020704752
:101290002DE9F043244C2368B3F92A80DB6987B039
:1012A00005460146D86900F006F9002838D00388C1
:1012B000D0F80490ED1A09EBC5064046B77804F063
:1012C000D3FD1A4B19F835201B6880462068A3B15E
:1012D000C169002591F818E0B0F92410B0F9220096
:1012E00005957568049504250295012503970195D8
:1012F00000951D687346A8470AE0C3697568B0F990
:1013000024101B7EB0F922000195009700F03CF9F3
:10131000404604F0A9FD22687178538C0B44538435
:1013200007B0BDE8F08300BF90010020E4BB0020BF
:1013300038B50A4B1B68DB6904460D460146D8697F
:1013400000F0B9F848B10388E41A436803EBC4021B
:10135000507815B113F834302B6038BD900100205F
:1013600011230B80704708B5C06900F0A4F8003065
:1013700018BF012008BD00002DE9F04F384C23684C
:10138000B3F92A80DB6989B006460146D86900F0C6
:1013900092F8002860D005884768751B07EBC506E2
:1013A000404696F802A004F05FFDD4F800C017F89C
:1013B0003520DCF81CE0DCF838309EF818B0BCF9B9
:1013C00024108146BCF922000593736804934FF002
:1013D000010CCDF80CA0CDF808C09EF81BC0CDF8CC
:1013E00004C09EF81AE0CDF800E05B4604F06CF80B
:1013F0002368DB69597E93F818A00791514520D9DD
:10140000B8F1020F1DD093F81BB000F0AFFE80467C
:1014100000F076FE02F08FFB23680799B3F924E011
:10142000B3F92200DB6917F83550DA7E0BFB01E3D4
:1014300005FB02020BFB0AE104F0DAF9404602F078
:101440007AFB484604F010FD23687178DA69907ED3
:101450005A8C00FB01225A8409B0BDE8F08F00BF0E
:101460009001002038B50D4B1B68DD6902460C4623
:101470000146E86900F01FF870B10388D21A43688A
:1014800003EBC2014878A97E10FB01F024B113F8E8
:10149000323011FB03F3236038BD00BF9001002000
:1014A00001230B80704708B5C06900F004F80030D4
:1014B00018BF012008BD38B103888B4202D8438889
:1014C0008B4201D28068F6E7704700002DE9F047B3
:1014D000DFF86480DFF85890DFF858A00025D8F8CE
:1014E00000309D4217DAD9F80070DAF800107C2637
:1014F0006E43BC19231D74221846FEF725FF0022F7
:10150000BA5104F10C02A26104F10802E063226402
:1015100060640135E3E709F0C7F9054B1A687C23DD
:1015200003FB0020034B04301860BDE8F08700BFC8
:10153000B4B9002090010020E801002070B50E4EE3
:101540000E4B0F4D304640F80C3F03F07FFE2C68E9
:101550007C235C43204600F0F1F80A4B30602246C1
:101560001B68002198474FF0FF336B600AF0F8FCCE
:10157000BDE8704009F098B9B4B9002081AC00080A
:10158000E8010020FC0100202DE9F04F2D4C2468DB
:10159000257C87B0AD070190029103920493109FC0
:1015A000DDF8448043D4A36B1D68E36B264C1E68B2
:1015B00063689E4202D1A3689D4223D0284604F06E
:1015C0003BFA8246304604F037FADFF88CB0C4F8B4
:1015D0000CA081460124E2B2DBF8003051464846B7
:1015E0009847194B03F10C0242F8240001340F2CE8
:1015F000F1D11648C3F84890059304F0E7F9059B2C
:101600005E609D601248BDF80C300382BDF810305A
:101610004382104B029A1B7801998782C0F8188088
:101620000372103007B0BDE8F04FFFF7F1BC084C73
:10163000CDF8448010972468A44607B0BDE8F04F69
:10164000604700BF90010020E8B70020580100204B
:1016500054010020CCBB00200402002010B5044639
:1016600038B100F0B9FE204606F070FD044602F0E5
:10167000CFFC204610BD000073B5054600F0ACFE5F
:101680002846FFF7EBFF064660B100F0D3F802AC46
:10169000074B44F8040D1B682A4600219847204652
:1016A00000F0F2F802F0B4FC304602B070BD00BFAA
:1016B000FC010020024B21F00301186059607047C3
:1016C00034B8002010B5044680B100F085FE084B08
:1016D0005B6B03EBC4035968486806F0E5FC2046E1
:1016E00009F060FCBDE8104002F092BC10BD00BFE4
:1016F000FCBA002028B1034BDA6B026002B15060E3
:10170000D8637047FCBA002010B5044600F064FEB0
:101710002068FFF7D7FF00232360BDE8104002F0E8
:1017200077BC70B506460D460024AC4205DA06EBE0
:101730008400FFF7E9FF0134F7E770BD2DE9F041C0
:101740000746264E033709F077F927F00307306C78
:10175000F26B0437874238BF0746144634B154F859
:10176000043C9F4223682CD01C46F7E7F368B26B19
:1017700002EB030858F8045CC5EB08052B6833B18D
:10178000204609F051FC58F8045CC5EB08052B68AD
:101790000BBB6B689F421EDC28461C1D09F024FC15
:1017A000F3686868DB1BF3607369E41B3B44C01B90
:1017B0002C44736102D0294606F076FC44F8047C80
:1017C00009E00BB161685960616801B10B60A24228
:1017D00001D12368F3632046BDE8F081FCBA002004
:1017E00008B509F029F90C4A00239918D1F8BC0072
:1017F00010B1836800200BE0083B13F1800FF4D197
:1018000008E05A689B68904238BF104613B19B6845
:10181000002BF6D10C3808BDFCBA002030B1044BC7
:101820005B6B03EBC000436858680C38704700BF1F
:10183000FCBA0020054BDA690132DA615A6B12F802
:101840003030013302F8303000F036B8FCBA0020F6
:1018500010B500F0C1FDFFF7C3FF0A4BB0F5800FD4
:101860008CBF1B6A1B6A4FF0640487BF90FBF4F0C7
:1018700003FB00F45843B0FBF4F402F0C9FB20462C
:1018800010BD00BFFCBA002030B50368094953F809
:10189000085C4C6B14F83530012B03D9CA690AB1C6
:1018A000013ACA61013B04F8353000230360184651
:1018B00030BD00BFFCBA0020034B5B6B03EBC000E4
:1018C00040680830704700BFFCBA0020F8B51446E5
:1018D00006460D4600F080FD204600F053FC154FF3
:1018E000142348B103FB047463689A685968AA1A00
:1018F000711A02F05FF918E003FB0473DA68B24270
:1019000002D11B69AB4210D0142303FB0473586946
:1019100030B15B689A685968AA1A711A01F072FEB0
:10192000142303FB0474E6602561BDE8F84002F06F
:101930006FBB00BF54BA0020C3B2CAB29A1A92B2A7
:1019400010B514B2002CBCBF524214B2C0F307232E
:10195000C1F307229B1A9BB2090C1AB2C1EB1041CA
:10196000002A89B208B2BCBF5B421AB20028BCBFD1
:10197000494208B2524304FB042280B200FB00201B
:1019800010BD000010B50021084600F097FC044986
:1019900043F6FF731A460846BDE8104000F002B84F
:1019A00001C0FFFF2DE9F34116461F4604460D46D0
:1019B00000F012FD042004F057FA144B1B69DA6C96
:1019C0001B6D804614441D4416441F446846ADF800
:1019D0000040ADF80460ADF80250ADF8067005F0B7
:1019E000FDFE38B9404604F03FFA02F011FB02B0A8
:1019F000BDE8F0813B4632462946204603F0F8FE1A
:101A000005F002FE0028F5D1ECE700BF80010020C0
:101A1000012BF8B506460D4617461C4601DD002091
:101A2000F8BD1C20FFF78AFE0028F8D00DB1056133
:101A300009E0094B53F8241029B10B680BB1194682
:101A4000FBE70B6903610023836084618782C660C2
:101A500003604360F8BD00BFD4BB002038B51D460D
:101A6000FFF7D6FF044648B100F00EF8E3681B68A4
:101A700023B9034B16351B6843F82540204638BD73
:101A800090010020FFF736BE30B508B9012030BD07
:101A90008469012CFADC1B4B1A789442A4BF621CA7
:101AA0001A70194A52F8243015461BB942F824001E
:101AB000184630BD5A680AB11346FBE7C26812687F
:101AC000D9680968914203DD1B68002BF8D1DDE776
:101AD00009D1818A012906D1196821B10B46C9684B
:101AE00009688A42F8DD5A6812B11060426001E06C
:101AF00045F824005860984208BF00230360002086
:101B000030BD00BFCEBB0020D4BB002010B520B13B
:101B10000468FFF7B9FF2046F9E710BD81690A4A5A
:101B200052F821309842036804D142F821300BB1B9
:101B300000225A60426802B11360036803B15A6020
:101B40000023036043607047D4BB0020002070472F
:101B5000012809DC054B53F8200020B1C3681B683D
:101B60001BB10068F9E7704700207047D4BB002024
:101B70002DE9F3410E4617469846054670B1FFF72A
:101B800059FE044602A8236840F8044D1C68FFF77C
:101B90007BFE43463A4631462846A04702B0BDE8A0
:101BA000F081000008B500F017FC00F0F5FA054BD5
:101BB0001B689A8C10441A8C98845A84BDE808409B
:101BC00002F026BA900100202DE9F04F054685B0BD
:101BD000002800F08480434C00F0FEFB00F0DCFAAB
:101BE00023680746B3F9228000F03AFB2268938C01
:101BF00086B29B1B9384A1462B78002B61D047F6BD
:101C0000FF71284603F0B2F901468246284603F0E8
:101C10007DF92268938D03F00303012B04D0022B7E
:101C200004D190FBF3F302E0034600E00023518C63
:101C3000CB1A9BB219B21FFA80FB5184ADF8081081
:101C4000B2F92420ADF80A200BF1FF310B44ADF8B6
:101C50000C30013ABBB21A44ADF80E20514602AA2C
:101C60002846019302F0CAFB2268BDF80A1091844D
:101C70002846514602F0B6F82A5C019B0A2A05EB79
:101C8000000E01D00D2A12D12268918D01F00301BE
:101C9000013901298ABF118CA2F8228051849EF853
:101CA00000100A290AD1918C0B44938406E0BDF8F8
:101CB0000800D9F800308344A3F822B09EF8003021
:101CC00053B923689A8C16449A8D9E8422F003029D
:101CD0009A8502F09DF902E00EF101058CE705B04E
:101CE000BDE8F08F9001002070B50E461546044601
:101CF00000F072FB054B1B6820465E849D84FFF755
:101D000063FFBDE8704002F083B900BF900100207E
:101D1000F8B50B4B1B680546B3F92C0040F00200E8
:101D20000E46174601F092FF3A46044631462846D1
:101D3000FFF7DAFF2046BDE8F84001F087BF00BF9B
:101D40009001002047F6FF73AFF300802DE9F341C7
:101D50000C46174698460646E0B100F03DFB6CB1D4
:101D6000204605F04BFB054648B102462146684631
:101D700003F056F9684605F041FB00E0254643466E
:101D80003A462146304602F08DFB284605F036FBE8
:101D900002F03EF902B0BDE8F081000073B50646DE
:101DA00015460C4600F018FB114B1B68DA6C1B6DD6
:101DB0001D443388ADF802501444013B2344ADF870
:101DC00004307388ADF80040013B2B446846ADF801
:101DD000063005F003FD18B902F01AF902B070BD23
:101DE0002A4621463046FFF713F905F00DFCF2E7CD
:101DF000900100202DE9F04387B0044690469946B3
:101E00000D4600F0E9FA164B1B68DA6C1B6D1444A2
:101E10001D449044994404A8ADF81040ADF81480D6
:101E2000ADF81250ADF8169005F0D8FC20B902F0CC
:101E3000EFF807B0BDE8F0830A4E01270F9B01932E
:101E40000E9B009342464B46294620460397029636
:101E500007F068FF05F0D8FB0028EFD1E7E700BFE7
:101E600090010020ED5600082DE9F341144F804603
:101E700016460C4600F0B0FA3D682A6DEB6C08EB94
:101E800002051C441E4468462BB2ADF80040ADF874
:101E90000460ADF80230ADF8063005F09FFC20B9C3
:101EA00002F0B6F802B0BDE8F0813B685B6E3246E6
:101EB0001B6829462046984705F0A6FBEFE700BFC0
:101EC000900100202DE9F74306461F4688469146BB
:101ED00000F082FA1E4B1C68206DE56C247E013CEC
:101EE000A4B22E44331B4D4480440744ADF8003067
:101EF0006319ADF804306846C4EB08033C44ADF800
:101F00000230ADF8064005F069FC20B902F080F817
:101F100003B0BDE8F08308F1010407F1FF392A4658
:101F20004146304603F0E2FB2A463946304603F08C
:101F3000DDFB4A462146304603F030FC4A46214646
:101F4000284603F02BFC05F05FFB0028E7D1DDE716
:101F50009001002073B5044616460D4600F03CFA89
:101F60000F4B1A68D36C126D1C4423B215441644EF
:101F70006846ADF80030ADF80430ADF80250ADF869
:101F8000066005F02BFC18B902F042F802B070BDF3
:101F900032462946204603F001FC05F035FBF2E706
:101FA0009001002010B5002400F006F808B10124CB
:101FB000FAE7204610BD00000C4B10B51C681CB1A0
:101FC000A047041C18BF012404F07EFC084B1B68CA
:101FD000002818BF01241BB19847002818BF01240E
:101FE000044B1B6803B19847204610BDF8BB002086
:101FF000FCBB0020F4BB0020F7B5044616461F4684
:102000000D4600F0E9F9104B1B68DA6C1B6D1444A7
:102010001D4416441F446846ADF80040ADF8046006
:10202000ADF80250ADF8067005F0D8FB18B901F014
:10203000EFFF03B0F0BD3B4632462946204603F091
:10204000D7FB05F0E1FAF1E79001002013B50B464C
:1020500030B1C488818800928268204600F002F87E
:1020600002B010BD30B50428039D27D010DC012834
:1020700018D0022838D1694302EB93026FEA43007B
:10208000525C00F0060022FA00F000F0030030BDC0
:1020900010281DD0202821D0082825D105FB01219A
:1020A000C85C30BD694302EBD302D843525C00F0F8
:1020B000070022FA00F000F0010030BD02EB5302ED
:1020C0006943DB07505C4CBF00F00F00000930BDD6
:1020D0004C1005FB043332F8130030BD8C1005FBA7
:1020E000043352F8230030BD002030BD034B53F8B9
:1020F0002000C36808219B6A184700BFD4BB00209A
:1021000010B500F069F903F0A3FB03F095FC044659
:1021100001F07EFF204610BD10B5044600F05CF9CA
:10212000054B1B68DB6900215B6820469847044625
:1021300001F06EFF204610BD9001002038B5044626
:102140000D4600F049F9064B1B68DB6929465B68C0
:1021500020469847044601F05BFF204638BD00BF8B
:102160009001002008B104F009BC704710B500F0E0
:1021700033F903F075FB03F05FFC044601F048FF00
:10218000204610BD01289ABF024B53F820000020C2
:10219000704700BFA0BA002010B500F01DF9044B35
:1021A0001B68DB695C7E01F033FF204610BD00BF79
:1021B00090010020024B002218681A60704700BF8F
:1021C000ECB8002070B504460E46154600F004F940
:1021D00020462A46314603F0ADFB044610B10023E9
:1021E00033602B6001F014FF204670BD38B5054602
:1021F0000C4600F0F1F8064BB3F900302B60054BAC
:10220000B3F900302360BDE8384001F001BF00BFE2
:10221000C2BB0020C4BB002010B5044C236813B916
:1022200003F0AAFB2060206810BD00BF40B800206A
:1022300010B5044C636813B903F0B2FB60606068CA
:1022400010BD00BF40B8002004483523037034237C
:102250008370C37061230371704700BF7801002051
:1022600010B500F0B9F80C4B1A68938D03F00C030D
:10227000082B07D00C2B05D0042B07D1D3691C7E6B
:10228000013C04E0D3691C7E640800E0002401F0F6
:10229000BFFE204610BD00BF90010020024B53F846
:1022A00020301B6918687047D4BB0020024B53F8DC
:1022B00020301B6958687047D4BB002038B50546EC
:1022C0000C4600F089F8044B1B685D849C8401F087
:1022D0009FFE002038BD00BF9001002090B583B064
:1022E00000AF344A334B1B6823F001031360324BB9
:1022F00001221A6000BF304B1B68002BFBD12F4B13
:102300002F4A1A602D4B1B682E4A934200D0FEE7DD
:1023100001F05EFF2C4B2E221A7009F01FFE2B4895
:1023200008F04AFB09F0C8F9786003F02DFB03467A
:10233000002B0CBF01230023DCB203F039FB034662
:10234000002B0CBF01230023DBB22343DBB2002BA5
:1023500009D003F022FB044603F033FB0346194681
:10236000204603F07BFD0021002001F041FC04F039
:102370006FFDFFF7ABF8164B1B68002B12D00DE07A
:10238000134B1B681B68002B03D0114B1B681B6889
:1023900098470F4B1B685B680D4A13600C4B1B681A
:1023A000002BEDD10B4B01221A707B6818460C37BD
:1023B000BD4690BD002000E00830024000300240E1
:1023C000C2A507F4CDB5E8B5C0BB002050B80020C9
:1023D000C8B80020CDBB00202DE9F041194C63683E
:1023E00023B109F0B7FDA368984204D009F0DEFDDF
:1023F00009F0B0FDA0606368DFF848800133012B6D
:1024000063601CD108F050FA0F4A5368984207469F
:10241000164614D0002B11DBD8F800507C2404FBA6
:102420000355FFF793FBD8F80030A86704FB073487
:10243000064BA06F221D1A60FFF768FB7760BDE8AE
:10244000F08100BFB4B90020E80100209001002015
:1024500013B5044618B9104B1B681C6ED4B1FFF7B6
:10246000BBFF2046FFF7E6F902AB446943F8080DCD
:102470001846FFF709FA5CB12046FFF7DBF902AC1A
:10248000836844F8040D9B6898472046FFF7FCF9E1
:1024900001F0BEFD02B010BD90010020014A1146BE
:1024A00000F002B801F0FFFF2DE9F0430C4685B0C3
:1024B00015460646002845D0FFF78EFF002001F0A4
:1024C0005DFB224B1B6807463046D3F86080FFF760
:1024D000B1F903680190986901F006FB019A1C4B61
:1024E0009C42138904BFB2F90440B2F90650ADF81A
:1024F0000840013B2344ADF80C305389ADF80A5035
:10250000013B2B448146ADF80E3003F0BBFF01A820
:10251000FFF7BAF902A805F061F958B9484601F089
:10252000E3FA404600F0ACF9384601F027FB01F031
:102530006FFD07E02A462146304600F07FFB05F09C
:1025400063F8EAE705B0BDE8F08300BF9001002022
:1025500001F0FFFF2DE9FF470C9D07469A4688468C
:102560009146FFF739FF194B1B68587C184B53F8FD
:102570002040E3681B68042B06D02468002CF8D1A7
:10258000FFF7E6FA0446E8B1E3680121DB6A20467A
:102590009847064698B12469A3689847013008BF58
:1025A0000C4C029408BF45F001058DE860005346CD
:1025B0004A464146384600F0FBF9044600E004462E
:1025C00001F026FD204604B0BDE8F0879001002010
:1025D000D4BB0020CCBF060837B50446F0B1FFF7E6
:1025E000FBFE0F4B1B681B6E9C4201D101F06EFA83
:1025F0002046FFF71FF90190406908B101F0EEFC99
:1026000002AD55F8043D1868FFF73CFA2846FFF77D
:102610003BF92046FFF756F801F0FAFC03B030BD55
:10262000900100202DE9F04F87B0064603929846AE
:102630000291FFF7D1FE544B1A68547C534A12574B
:10264000012A20469B4606DD03F0A4F98146204678
:1026500003F0B4F905E003F086F98146204603F063
:1026600088F9044636B305A904A8FFF7BFFD049A0C
:10267000059BB6F90070B6F90250914409F1FF329A
:102680001C44B6F90490B6F9063027EAE77725EA44
:10269000E575013C4A45D4BFC7EB0209C7EB090900
:1026A0009C42D4BFC5EB0404C5EB030409F1010946
:1026B000013401E035463746B8F1000F01D1C4F1CD
:1026C0000008B9F1000F01DD002C03DC01F0A0FCD3
:1026D000002055E0109B00934A4643462946384661
:1026E000FFF738FF064630B90398029B984701F080
:1026F0008FFC012044E000F07DF88442804606D043
:10270000DBF80030986C10B1322105F0FAFB30464E
:1027100000F0B6F8A2464FF00009D04503DD51465F
:10272000304600F091F8B9F1000F08D0304605EBC3
:102730000902394600F0CEF83046FFF789FE029BC9
:1027400003989847124B1B680BB1FF2098473046FF
:10275000C144FFF7A3FE4C45C8EB0A0ADDDC304656
:10276000FFF73AFF002000F08BF84445AED0DBF8CD
:102770000030986C0028A9D0332105F0C2FBA5E7F2
:1027800007B0BDE8F08F00BF90010020D0BB002053
:10279000D4BA002037B5044698B1FFF71DFE204695
:1027A000FFF748F8036802AD1B6945F8040D9B6804
:1027B000984703F04CFD04462846FFF765F801F002
:1027C00027FC204603B030BD13B5044670B1FFF7B7
:1027D00003FE2046FFF72EF802AB00F1180443F881
:1027E000040D1846FFF750F801F012FC204602B025
:1027F00010BD000013B50446FFF7EEFD1CB90A4BEF
:102800001B681C6E54B12046FFF714F802ABB0F9F8
:102810000A4043F8040D1846FFF736F801F0F8FBBC
:10282000204602B010BD00BF9001002038B505461B
:102830000524284605F05CFE10B9013CF9D138BDED
:10284000BDE8384000F078B837B50D46044618B9F1
:102850000A4B1B681C6E7CB1FFF7BEFD2046FEF7DD
:10286000E9FFB0F90A300190AB42C8BF458101A829
:10287000FFF70AF801F0CCFB03B030BD9001002057
:10288000F7B50646FFF7A8FD114B1A681C46176EF0
:1028900016B901F01BF916E00FB101F017F903F0BA
:1028A00035FF3046FEF7C6FF02AD236845F8040D3C
:1028B0001E660068FFF7E8F82846FEF7E5FF03F01C
:1028C00089FB03F0ABFA01F0A3FB384603B0F0BD7F
:1028D0009001002073B50D461446064618B9154BF5
:1028E0001B681E6E26B3FFF777FD3046FEF7A2FF8A
:1028F00024B22DB2C4808580009003F08FFA009B33
:10290000586980B1FEF796FF009B0190B3F908204B
:10291000B3F90A308280C38012B10BB105804480C4
:1029200001A8FEF7B1FF6846FEF7AEFF01F070FBAD
:1029300002B070BD90010020014A114600F002B8BB
:1029400001F0FFFF7FB50C461546064660B3FFF762
:1029500043FD3046FEF76EFF144B01909C42038905
:1029600004BFB0F90440B0F90650ADF80840013B8F
:102970002344ADF80C304389ADF80A50013B2B4499
:1029800001A8ADF80E30FEF77FFF02A804F026FF85
:1029900010B901F03DFB07E02A462146304600F021
:1029A00031F904F031FEF3E704B070BD01F0FFFF30
:1029B0002DE9F04F464D87B01C462B68109F5B7C7D
:1029C00081468A469046129911980022FFF720F816
:1029D0000395064680B303699B68984703F037FC6C
:1029E00000FB08F50290FEF733FF17F0010708BF60
:1029F000042305F1070504BF90FBF3F000EB400052
:102A0000002C4FEAD50544DC1DB11838B0FBF5F0B9
:102A100000E0284664428442A8BF044677B9009784
:102A2000234642465146484601F05AFA002C834656
:102A300039DC3046FFF726F8002046E0002CF8DDB0
:102A400005FB04F01830FEF709FE07460028F0D019
:102A50004FF0000B3846FEF7EDFE034606A8029A3B
:102A600040F8043DA3F804901E60A3F806A0A3F864
:102A700008805C81DD601A61C3F814B0FEF704FFC2
:102A8000129B3361039BB7601B685B7CB361384664
:102A90001BE0002FD4D100972346424651464846BA
:102AA00001F01EFA834605FB04F01830FEF7E4FD42
:102AB00007460028CED13046FEF7E4FFBBF1000FF9
:102AC000BAD05846FEF7FEFDE1E707B0BDE8F08F4B
:102AD000900100202DE9F047454D464BD5F800E028
:102AE000454E9EF81140D6F800C053F824408CB0F3
:102AF0000746059104922369BCF1000F12D0E268E9
:102B0000DEF86010126819B9B2FA82F2520905E0D3
:102B1000072A04D0394A991A4A424A412AB9049AE2
:102B20000599384608F01EFC5FE03846FEF782FE45
:102B300003460CA8B3F9084040F8083DB3F90A90E1
:102B4000D3F80C80FEF7A0FE08AB06AA05A9204624
:102B500005F076FB069B002B47DD09AB07AA04A90D
:102B6000484605F08FFB079B002B3EDD3846FFF7FC
:102B70002BFE099B089F03FB04772B6800EB87075C
:102B8000186E28B3DDF81490049DFEF753FE04463A
:102B90000CA8B4F90630D4F80CA040F8044DED1A96
:102BA000B4F90430C3EB09094FEA89090AFB05951A
:102BB00018352C44FEF768FEBCB1CDF80480CDF882
:102BC00000A03568079B069A39462046A8470CE0C6
:102BD000587C079B0193069B0093A400084B02942A
:102BE0001C68049A05993B46A0470CB0BDE8F087E5
:102BF00090010020D4BB0020E0BB0020CCBF060821
:102C0000DCBB00202DE9F3410F4690460646FEF757
:102C100011FE036802ACDB6844F8040D5B6A162100
:102C20000020984705462046FEF72EFE1DB142467D
:102C300039463046A84702B0BDE8F0812DE9F04F93
:102C40009BB0054608910992002800F09983FEF791
:102C5000F1FD1AAB446943F81C0D1846FEF714FE4B
:102C60002846FFF797FD08280746A54E02DD002CF1
:102C700000F0C98101230027284619930D93189766
:102C8000FEF7D8FD0268B0F90A3012690E930DF113
:102C900068095368326849F8140D0469D0F8148043
:102CA000D0F80CA0B0F908B0507C0C93FFF71EFAD6
:102CB00032680B90507CFFF7F9FA0A904846FEF70D
:102CC000E3FD082C0A9A0D9B04D9102C8CBF042319
:102CD000022305E0012C03D118AB0D940A9301E007
:102CE0000D930A970C9B934200F0DF803368587C69
:102CF000FFF7D4FA0F904FEA8B00FEF7AFFC10906D
:102D0000002800F03D832846FFF75EFD0546B8F138
:102D1000000F00F0B9804046FEF78CFD05EB0A037A
:102D200011930023DDF8249016900993119B099AC2
:102D3000CAEB03070E9B934240F3A2801698099AB0
:102D40000023179383680DF15C085B69414698473F
:102D50008345054628D11098FEF76CFD0F9B019323
:102D6000082C0C9B1490014600935A460B9B384646
:102D700002D905F00CFB01E005F028FB0A9B059346
:102D80001AAD089855F8183D0493002303930B9B44
:102D900002930123019300935A46494602F094FBA3
:102DA0002846FEF771FD62E0012C02D04FF00108C9
:102DB00057E0002D5BD01798089ECDF80CA000F0CE
:102DC000070306930A9B0593082390FBF3F33B4408
:102DD000049301232A460293019300934946304409
:102DE00003F00AF9179B1698099A1D4483681795F2
:102DF0005B69414698470546DBE71098FEF71AFDE8
:102E00000F9B149001460D9E17980193082C0C9B64
:102E100000932A460B9B00FB067025D905F0B7FAF4
:102E20000A9B0593149B04931798089ECDF8048081
:102E3000002303930B9B02932A4601234946304407
:102E4000CDF8008002F040FB14A8FEF71DFD179B93
:102E50001698099A1D44836817955B6917A99847C6
:102E60000546002DC9D102E005F0B0FAD8E7099B6C
:102E700001330993119B5344119309F1010955E75B
:102E800016A8FEF701FD0EE00A9B059301230490AE
:102E900001930093CDF80CA002940E9B0999089819
:102EA0005A4602F011FB109868E22846FFF78CFCA6
:102EB0000746B8F1000F00F09A804046FEF7BAFCD2
:102EC000002516900E9BAB4240F38D801698002390
:102ED000179383680DF15C085B692A464146984761
:102EE0008345064626D12E461698836806F10109C9
:102EF0005B694A4641469847834503D14E46F3E70E
:102F0000900100200A9B09990593C5EB060801234F
:102F100008F101080497019300932944CDF80CA00F
:102F2000029443465A46089802F0CEFA0AFB087704
:102F3000354656E0012C099B04D02B440B934FF0EF
:102F400001092BE003EB0509A0462EB3DDF85CE098
:102F50000898CDF80CA00EF0070306930A9B059382
:102F600008239EFBF3F33B443246704404934946E6
:102F70000123CDF80880CDF80480CDF8008003F05F
:102F80003BF8179B16981E44836817965B692A4680
:102F900017A998470646D8E7574422E0002EFBD0F1
:102FA0000A9BDDF85CE005930D9B08980B99CDF822
:102FB0000CA003FB0E733246704404930294012369
:102FC000CDF80490CDF8009002F07EFA179B169889
:102FD0001E44836817965B692A4641469847064611
:102FE000DCE701356EE716A8FEF74EFCC8E10A9B48
:102FF00005930123019300930490CDF80CA0029453
:103000000E9B5A463AE02846FEF714FC83461AA85F
:10301000BBF90A3040F810BDDBF800200B93DBF859
:103020000C30D2F810800C93BBF90840FEF72CFC52
:103030003268D8F80490507CA14A52F820201669D2
:1030400033680A93FFF752F808280C9B06D910281A
:103050008CBF4FF0040A4FF0020A01E04FF0010A62
:10306000B04510D10393012300220BF11800019306
:1030700000930B9B059204900297224609990898A9
:1030800002F022FA7CE1202F40F0A2800AFB04F03B
:10309000FEF7E4FA0D90002800F07281FEF7CAFBFB
:1030A00018902846FEF7C6FB169033694FEACA020D
:1030B00000F118054FEA840B0C9273B3DDF82480FD
:1030C0004FF00109BAF1020F05D0BAF1040F02D096
:1030D000BAF1010F06D1284637691899534622469E
:1030E000B8475D440023189A059303930C9B049200
:1030F000029322460123CDF80490CDF8009041467A
:10310000089802F0E1F90B9B099A08F101071344B2
:103110009F4200F02C81B846D4E7099F1E460B9BC6
:103120003B444FF001090993BAF1020FDDF86080CA
:1031300016D0BAF1040F24D0BAF1010F30D14346B2
:103140002A4652F8040B0E930A9B0B9298470E9B4B
:103150000B9A03F8010BE11A18EB010FF1D11EE0F5
:1031600043462A46A04652F8040B0E930A9B0B9244
:1031700098470E9B0B9A23F8020BB8F10108F2D185
:103180000DE02A46234652F8040B0E930A9B0B923D
:1031900098470E9B48F8040B013B0B9AF3D15D4412
:1031A000189B04930C9B0293059601230396CDF87C
:1031B0000490CDF8009022463946089802F084F930
:1031C000099B07F10108434500F0D1804746ABE772
:1031D000102F40F0D58004FB0AF0FEF73FFA0D9067
:1031E000002800F0CD80FEF725FB18902846FEF75A
:1031F00021FB1690336900F1180713B1D8F8143089
:1032000053B94FEACA03099D0C930B9B2B446600EC
:103210004FF0000B099383E0B0F908008000FEF73F
:103220001DFA0C9018B1FEF705FB179001E00C9BFE
:103230001793179B002B00F09A8063000A93DDF828
:1032400024B04FEACA030E93BAF1020FDDF8609082
:1032500006D0BAF1040F05D0BAF1010F11D101E087
:10326000534600E00223384622461799D8F81450F6
:10327000A84753462246494617983569A8470A9BEE
:103280001F440023059303930E9B189A0293012376
:1032900004920193009322465946089802F014F9CB
:1032A0000B9B099A0BF101091344994501D0CB46B8
:1032B000CAE717A8FEF7E8FA0C98FEF703FA56E0FB
:1032C000D4BB0020BAF1040F41D0BAF1010F11D1E3
:1032D00043463A4632F8020B0B920E93C8470A9BBC
:1032E00098470E9B0B9A03F8010BE11A18EB010F9C
:1032F000F0D13744189B04930C9B02930123019354
:103300000093CDF814B0CDF80CB0224629460898A9
:1033100002F0DAF8099B05F10108434527D045463C
:10332000BAF1020FDDF86080CCD143463A46A046A0
:1033300032F8020B0B920E93C8470A9B98470E9BDC
:103340000B9A23F8020BB8F10108F1D1D1E73A4604
:10335000234632F8020B0B920E93C8470A9B9847FC
:103360000E9B48F8040B013B0B9AF2D1C1E716A85B
:10337000FEF78AFA18A8FEF787FA0D98FEF7A2F969
:103380001BB0BDE8F08F00BF10B538B309B30AB366
:10339000B2F90040B1F90030A342A8BF2346038030
:1033A000B2F90240B1F90230A342A8BF23464380DC
:1033B000B2F90440B1F90430B2F90620A342B8BF13
:1033C00023468380B1F906309342B8BF1346C380C9
:1033D00010BD11460B6803604B68436010BD68B1B7
:1033E000038889B20B440380838819444388818011
:1033F00092B213444380C3881A44C28070470000CD
:10340000114A136851688B4270B5044616460F4D39
:1034100009D1AB4206BF3C3393E8070013E907002C
:1034200084E807000AE093E8070084E8070005F154
:103430003C02934218BF03F10C053560207A00303E
:1034400018BF012070BD00BFA40100204CB90020AE
:10345000024B09CBC31A584258417047A4010020BF
:10346000F0B5274C236D85B006462BB92046254B79
:1034700040F8503F01F0EAFE234B244A1A6096E8D8
:103480000700E36C01AD85E807000BB128469847BB
:103490001F4EDFF880E0376873689F4217D0A34261
:1034A00014BFA3F10C0272469DF80C10107A8842EA
:1034B0000DD197420BD0A24214BF0C3A154A127A92
:1034C0008A4204D1A34214BF0C3B124B736095E8AF
:1034D00007007368734583E807000CBF084B0C3383
:1034E0009F42736004D1774514BF0C37044F376097
:1034F000A36C0BB12846984700F0C8FB05B0F0BD9F
:103500004CB9002069AC00088CFC0020B16A0008AE
:10351000A401002088B9002010B5FEF75DFF0B4A1A
:10352000136851688B420BD0094CA34293E8030007
:1035300014BF0833503B1360012403F09DFD00E0ED
:10354000002400F065FD204610BD00BF9C01002056
:1035500040B90020F0B4164D049E2D68059CB5F9C5
:103560000870B842B8BF3846B5F90C70BA42A8BF67
:103570003A4690421ADCB5F90A70B5F90E50B942D4
:10358000B8BF3946AB42A8BF2B468B420EDBE5687D
:103590002D6835F0040504D105940496F0BC02F0C2
:1035A00021BB2568002DF7D02C46F0E7F0BC704712
:1035B00090010020B0F90220B1F906309A4214DCE3
:1035C000B1F90220B0F906309A420EDCB0F90020C1
:1035D000B1F904309A4208DCB0F90400B1F90030C6
:1035E0008342CCBF002001207047002070470000BC
:1035F00008B5034B014674221868FCF7A5FE08BD08
:10360000900100202DE9F04FA7B0044611911292CD
:10361000002800F04782FEF7DFFE2046FEF70AF999
:10362000119AB0F9043023909A42D0F800B005D135
:10363000B0F90630129A9A4200F004820020FFF797
:103640001FF9DBF818300993964B239D1B681E90D9
:103650005A7C13921399099A8A421CBF9DF8242020
:103660005A74B5F904300593B5F906300693059AF6
:10367000B5F90830C2EB030A0AF101030793069A71
:10368000B5F90A309B1A0893013319932B8A9B07CB
:1036900040F1BB816B69059A0C93119B9B1A0293B5
:1036A000069A129B9B1A0393029B002B09DCCDF810
:1036B0002CA09A44002316934FF0FF330F930493EA
:1036C00007E0029B1693079B0F93012304930023AB
:1036D0000B93039B002B0BDC089C039A234613449B
:1036E0000893002314934FF0FF3310930A9306E0DE
:1036F000039B1493199B109301230A93002424A97C
:10370000584606F0FFFF0499239804F09BFE0D90A5
:10371000002800F07A810499239804F093FE0E901B
:10372000002800F06D81239BD86880B9079B0A9A16
:103730001D909B0053431F930B9A079B03FB04238D
:1037400005EB83031593049B9B002093CCE0FEF7CD
:1037500071F8079B0A9A22909B0053431F930B9A80
:10376000079B03FB042305EB83031593049B029A39
:103770009B002093059B13442193109B9C4200F0D7
:103780008C80149B9C4205DB089B9C42CCBF002391
:10379000012300E000231A93069B069ADDF854905B
:1037A0000B9DE3181893039B9E18E31A26441D9360
:1037B0000F9B9D426AD0224629460C98FEF746FC94
:1037C0001B9000285DD0059BEB181793219B5F1978
:1037D000169B9D4204DB55451A9BC8BF002300E0A1
:1037E00000231C93BDF99030BB4213DCBDF992302D
:1037F000B3420FDCBDF99430BB420BDBBDF9963010
:10380000B34207DB239B5A463146384606F0C2FED8
:10381000804601E04FF000081C9B53B1029BE91A5F
:1038200012D41D9B002B0FDB1A460C98FEF70EFCE2
:1038300050B9BDF99030179A934205DCBDF992302A
:10384000189A934240F30481BDF99030BB4216DCD4
:10385000BDF99230B34212DCBDF99430BB420EDBAD
:10386000BDF99630B3420ADB0D9B1B99229A009357
:1038700052F821205B463146384607F063FCC9F810
:103880002080049B1D44209B994491E70A9B1F9A2A
:103890001C44159B134415936FE722A8FDF7F4FF12
:1038A000A9E000BF90010020149BA34220DC089BEC
:1038B000A342B4BF002301231A93069B069ADDF8A6
:1038C00054900B9D23441893039B9E18059B029ACA
:1038D0001344264421930F9BAB420BD10A9B1F9AA2
:1038E0001C44159B13441593109BA342DCD182E02A
:1038F0000023E1E7224629460C98FEF7A7FB034682
:103900001B0E1B9072D0059BEB181793219B03EBAA
:103910000508169BAB4204DCAA451A9BB8BF0023DE
:1039200000E000231C93BDF9903043451DDCBDF938
:103930009230B34219DCBDF99430434515DBBDF933
:103940009630B34211DB239B5A463146404606F07F
:1039500059FE099A554B53F822301B6907465B689C
:1039600040F07F4098471D9000E000271C9B53B11A
:10397000029BE91A11D4039BE21A0ED40C98FEF7AD
:1039800065FB030E09D1BDF99030179A934204DC10
:10399000BDF99230189A934270DDBDF990304345DD
:1039A00022DCBDF99230B3421EDCBDF994304345B0
:1039B0001ADBBDF99630B34216DB1D9B1B9843F012
:1039C0007F413B4BFF221B689847099A374B53F8BE
:1039D00022301B691B6898470D9B009302465B468B
:1039E0003146404607F0AEFBC9F82070049B1D44E9
:1039F000209B99446FE7239B0E99186807F0E4FA1F
:103A0000239B0D99186807F0DFFA239BBDF844202B
:103A10009A80BDF84820DA800799119A1E980A44C6
:103A2000013A1A81129A1999013A0A445A81099B5A
:103A3000139A93421FBF1F4B9DF84C201B685A746A
:103A4000FEF71EFF23A8FDF71FFF00F0E1FA29E0B3
:103A5000BDF99430179A9342FFF6F6AEBDF9963051
:103A6000189A9342FFF6F0AE0E9B0093D9F82020EF
:103A7000189917985B4607F065FBE5E6BDF99430A9
:103A8000179A934289DBBDF99630189A934284DBEA
:103A90000E9B0093D9F82020189917985B4607F0E1
:103AA00051FB7AE727B0BDE8F08F00BFD4BB002000
:103AB000F00100209001002008B5034B7422196822
:103AC000FCF742FC08BD00BF9001002008B5FEF7DE
:103AD00083FC02F059F902F07DFA02F0D3FCBDE854
:103AE000084000F095BA000070B50B4D2B680446F5
:103AF0005E7CFEF771FC012C09D82046FEF728F801
:103B000028B12B685C74FFF7E1FF044B1C6000F0E8
:103B10007FFA304670BD00BF9001002024FC0020D9
:103B200010B50446FEF758FC204602F04DF9BDE8FA
:103B3000104000F06DBA10B50446FEF74DFC20466B
:103B400002F07AF9BDE8104000F062BA10B5044600
:103B5000FEF742FC054B1B686FF0704220461A636B
:103B600002F070F9BDE8104000F052BA9001002058
:103B7000014B5860704700BF8001002010B504461B
:103B8000FEF72AFC204602F06FF9044600F040FAE6
:103B9000204610BD38B50446FEF71EFC044B1B68DA
:103BA000DD6904B1DC6100F033FA284638BD00BF9E
:103BB0009001002070B504460D461646FEF70CFC39
:103BC00032462946204602F0BDF9044600F020FAAC
:103BD000204670BD38B50546FEF7FEFB034B1B685B
:103BE0009C7E9D7600F014FA204638BD900100209E
:103BF00070B504460D46FEF7EFFB094B1C80094BE0
:103C00001D80094B1B685A7C084B53F82200C26880
:103C10002146166A2A46B047BDE8704000F0F8B960
:103C2000C2BB0020C4BB002090010020D4BB0020F8
:103C300038B50546FEF7D0FB034B1B681C7E1D768E
:103C400000F0E6F9204638BD9001002038B5054661
:103C5000FEF7C2FB044B1B68B3F92C409D8500F0B6
:103C6000D7F9204638BD00BF9001002038B5054681
:103C7000FEF7B2FB044B1B68B3F92A405D8500F0E8
:103C8000C7F9204638BD00BF90010020024B1B68D9
:103C900003B11847704700BFC8B90020024B1A682B
:103CA00002B91860FFF7F2BFECB8002073B5044604
:103CB00078B3194EFEF790FB3568AC420CD1204624
:103CC000FDF7B8FD02AB826843F8040D3260184678
:103CD00015E06846FDF7D8FD9DB12846FDF7AAFD21
:103CE00085680090AC42F4D12046FDF7A3FD009B0F
:103CF000826801909A6001A8FDF7C6FD6846FDF74D
:103D0000C3FD204607F008FB2046FDF7DBFC00F072
:103D10007FF902B070BD00BFA8BA002037B50D46CC
:103D2000044690B1FEF758FB2046FDF783FD02AB39
:103D3000828943F8040D2A42184614BF0124002446
:103D4000FDF7A2FD00F064F900E00124204603B075
:103D500030BD0000002337B50360094B1C680546E1
:103D600054B12046FDF766FD02AB026943F8040D2D
:103D70002A601846FDF788FD204603B030BD00BF1D
:103D8000A8BA0020002373B50B600E46044690B11C
:103D9000FDF750FD02AD846845F8040D44B1284696
:103DA000FDF772FD2046FDF745FD03690190336084
:103DB0002846FDF769FD204602B070BDF8B5084EF3
:103DC0000468336805461B682046984733680746F1
:103DD0005B6820469847204428603846F8BD00BFFD
:103DE000E8BB0020F8B5074F06460D4600243DB15C
:103DF0003B6830465B689847013D06440444F6E75B
:103E00002046F8BDE8BB00202DE9F843089C054694
:103E1000884699461444AB68561C5F6841464B4639
:103E20002846B847B4423246F5D1BDE8F883F8B524
:103E3000B0F90040091BB0F90440A14232DAB0F9F0
:103E400002500B44521B0569CE10013B05FB026575
:103E5000DF43143501F0070407F00707FF2141FA9B
:103E600004F401FA07F7D6EBE30600EB0502E4B22F
:103E7000FFB210F805E004D13C404EEA040444557A
:103E8000F8BD44EA0E044455751E002D02F10103ED
:103E900005DD18462A46FCF781FA03462B441C78B8
:103EA0003C431C70F8BDB0F90030C91AB0F90230BB
:103EB000D21A03695A43143202EBE102802301F063
:103EC000070143FA01F1835C194381547047B0F94B
:103ED0000630026900215A431430FCF75FBA000033
:103EE0002DE9F74302F10F0424116400814603FB1E
:103EF00004F01430884617461E46FDF7BDFB054604
:103F0000B8B1FEF769FA2846FDF794FC03460B4A60
:103F10009A6002A8012240F8043D9F80A3F8009017
:103F2000A3F80280DE809A811C61FDF7ADFC00F0F1
:103F30006FF8284603B0BDE8F08300BFB8D5060887
:103F4000B0F906309342F0B544DD0C68B0F9046076
:103F5000B4423FDA0769E3101D4607FB0232731EC5
:103F6000C5EBE30302F1150514320544825C04F04D
:103F700007008240D2B23AB973B3083415F8012B66
:103F8000013B24F00704F6E7170603D45200D2B22F
:103F90000134F9E7FF2A06D02046560604D5520020
:103FA000D2B20130F9E7E01D00F00702072A0DD177
:103FB000013B0BD415F8012BFF2A01D10830F7E79C
:103FC000130603D55200D2B20130F9E7001B0C6092
:103FD0000130F0BD0020F0BD1846F0BD37B50546F4
:103FE000FEF7FAF92846FDF725FC02AB848943F871
:103FF000040D013C24B284811846FDF745FC14B938
:104000002846FDF75FFB00F003F803B030BD000069
:10401000034A5368013B53600BB907F0D1BF7047A7
:10402000B4B900201FB508B9024600E003AA002376
:1040300002A901A800F00EFF05B05DF804FB000026
:1040400010B5074B1C7818B101221A70002002E04D
:1040500018704FF07F4001F021FA204610BD00BFDC
:10406000CFBB0020082A10B50EDD102A0ADC03465B
:1040700000EB410150F8042B23F8022B8B42F9D1BD
:10408000012010BD002010BD022A28D1044603687B
:1040900001294FEA8313DBB21ED04268120102F0FD
:1040A0003002022943EA020301D1083015E0826898
:1040B000920002F00C02032943EA020301D10C3002
:1040C0000BE0C26802F0030213430439103004F815
:1040D000013B0029DBD1D3E704300021F7E7042AB4
:1040E00015D104460129036818BF42684FEA03133B
:1040F000DBB21BBF02F00F021343002102390CBFD9
:104100000430083004F8013B0029EBD1B8E7012A5C
:1041100003464ED11A6801294FEAC212D2B245D0E5
:104120005C68A40104F04004022942EA040201D1BF
:1041300008333CE09C68640104F02004032942EA4F
:10414000040201D10C3332E0DC68240104F01004D5
:10415000042942EA040201D1103328E01C69E4007A
:1041600004F00804052942EA040201D114331EE0D8
:104170005C69A40004F00404062942EA040201D1A7
:10418000183314E09C696400073904F0020442EA21
:1041900004021BBFDC6904F001041C33224318BF76
:1041A000203300F8012B0029B4D169E70433002142
:1041B000F7E7014450F8042B03F8012B9942F9D199
:1041C0005EE713B50024009400F04CF802B010BD77
:1041D000F0B51F4DEB6F85B0002B37D10123EB6796
:1041E0001C4B6A4603F108076E4618685968144666
:1041F00003C40833BB422246F7D1186899889B79DB
:10420000A3712060A180144C334613F8012B04F8ED
:10421000012B1A78002AF8D1FEF716F810F8013BA6
:10422000224604F8013B0378002BF7D1537007F0C6
:1042300083FEFDF783F90AF0EDFF084B0848C5F847
:10424000943005B0BDE8F04001F000B805B0F0BD15
:1042500050B80020A0B70608D0B8002025AC000850
:10426000E4B800202DE9F843089FD3F80080002F20
:1042700008BF0746082A04460D4605DD102A40F30C
:10428000AD800020BDE8F883013A072A00F29D8046
:10429000DFE802F0115B9B7F9B9B9B89E069C04735
:1042A00004F120093043C6B2083D4C4607F8016BC3
:1042B000002D00F08A802068C047012D4FEAC01011
:1042C000C6B200F085806068C047022D46EA8010C3
:1042D000C6B201D108347CE0A068C047032D46EA8D
:1042E0004010C6B201D10C3473E0E068C047042D21
:1042F00046EA0010C6B201D110346AE02069C04716
:10430000052D46EAC000C6B201D1143461E06069EF
:10431000C047062D46EA8000C6B201D1183458E0E5
:10432000A069C047072D46EA4000C6B2B6D11C348A
:104330004FE0E068C04704F110093043C6B2043DC5
:104340004C4607F8016B002D3FD02068C047012D77
:104350004FEA8010C6B23ED06068C047022D46EAE0
:104360000010C6B201D1083436E0A068C047032D62
:1043700046EA8000C6B2DCD10C342DE06068C0474C
:1043800004F108093043C6B2023D4C4607F8016B00
:10439000DDB12068C047012D4FEA0010C6B2EDD153
:1043A00004340025F2E71E692EB101232A4639465E
:1043B0002046B04709E07E1E54F8040BC04706F8BB
:1043C000010FF3432B44DF42F6D10120BDE8F8830F
:1043D000043400256AE704340025B2E71E691EB1E3
:1043E00002232A463946E4E7023F54F8040BC0474B
:1043F000013D27F8020FF8D1E7E70000274B1B68C3
:10440000F7B505460E4663B1002003F0E7F9002832
:1044100041D06A463146284604F01CF903F0F4F80E
:10442000F5E7106851681E4C6B4603C32268BDF85F
:104430000030B2F84C70B2F85000BDF80210BDF870
:1044400004203B44ADF80030BDF80630014403447D
:104450003A446846ADF80210ADF80420ADF80630D5
:1044600003F0BCF9236840B9D96C5A8C521A5A84AB
:10447000196D9A8C521A9A840DE0BDF800205A8466
:10448000BDF802209A8431466A46284604F0E2F8D4
:1044900003F0BAF8E6E703B0F0BD00BFE4BB0020CC
:1044A000900100202DE9F04786B00C460190164699
:1044B0001F46FDF771FEDDF80490804624B12068A8
:1044C000616804AB03C302E004A8FDF74BFE16F0DD
:1044D0000C0A02D1BDF9124031E03C4600258CB1F6
:1044E0002146019800F042FD0146241A0198FFF789
:1044F00079FC019B1844019001A8013500F060FD92
:104500000028ECD0BAF1080F05D0BAF10C0F08D092
:10451000BAF1040F12D1BDF9164008FB154401345D
:104520000DE0BDF91220BDF916309B1A01330224AB
:1045300008FB153595FBF4F5AC1800E00024CDF828
:104540000490DFF8A890002506F0030608F1FF3874
:10455000002F48D03946019800F008FD01468246F8
:104560003F1A019800F0D2FC012E0FD0022E03D08A
:1045700086B9BDF910500DE0BDF91050BDF91430E9
:104580005B1B1B1A93FBF6F31D4403E0BDF91450AB
:104590002D1A0135D9F80010013823B22AB2284467
:1045A0004A848B84ADF80820514602AAADF80C006D
:1045B000ADF80A30019808EB0403ADF80E30FFF7B0
:1045C0001DFF51460198FFF70DFC019B0DF1180AE4
:1045D00018444AF8140DFDF7DFFD0444504600F07E
:1045E000EFFC0028B4D006B0BDE8F08790010020B1
:1045F0002DE9F04F93B000241D9F0A900B91924635
:104600001E463C6011AB224610A90FA800F022FC08
:104610000546002840F0BD80119B604CB342A8BF06
:10462000334609932368587C5D4B53F82030079339
:104630001B690C93FDF75AFD23680890587CFDF721
:1046400035FE584B0390984205D0574BC31A18BFFC
:104650000123069300E006950026DDF824B03546D8
:10466000534653F8040B0D931C9B9847030EFF2BE6
:10467000049005937BD0002D39D10A9B099A03EB56
:104680000609464B1B68B3F908304B45C4BFC9EB5C
:10469000030599460A9B03EB0208079B0193AC199B
:1046A0000F9BA400234400930B9B4846194608F136
:1046B000FF32FEF74FFF089B0F98172B07DC0C9B70
:1046C000089AC5EB0B01204400F006FB01E0069BB5
:1046D0000BB901250BE00444C9EB08082068039BD3
:1046E0009847B8F1010844F8040BF7D1F1E72F4BD4
:1046F000D3F81C80B400B8F1000F23D0109D0F999F
:104700002A19214410925B460F915046C047109AD7
:104710000F9C00235AF8231054F8230011F07F4F08
:1047200002D142F8230004E010F07F4F08BF42F8A6
:10473000231001339B45EDD13B68109543F00103F5
:104740003B6024E005999DF814200F9BDDF8408024
:1047500019B91B5948F8043011E01959049B43F06A
:104760007F40134B1B68984748F8040003E0109BF8
:10477000049A43F826203B6843F001033B60BBF1F9
:10478000010B06F10106DDF834A07FF469AF109843
:1047900000E0204613B0BDE8F08F00BF900100207C
:1047A000D4BB00201F5B0008195B0008D0B90020B3
:1047B000F00100202DE9F04F95B0A64D07929B46E1
:1047C000219A209B0C9043EA02082B680891587CA0
:1047D0001E9CFDF763FD2B680990587CFDF786FC55
:1047E0001828064606D0082807DD1128B4BF02277E
:1047F000042703E02026042700E00127B8F1010F79
:104800000AD0079B23EAE37303EB43030F930023D0
:104810006FF070480A9318E12B68587CFDF746FD4D
:1048200000230D9013AA1946184600F013FB002828
:1048300040F05F81079BCDF8288003EB43030B9387
:104840008146054694F800A0BAF1FF0F11D1079BED
:104850000135AB4208D109F10109BBF1000F00F0AD
:1048600048810BF1FF3B002514F8033FFF2BEED0EE
:10487000D4E0BAF1000F40F0BB800C9B229AEB18F9
:104880000E93089B4B440F930D9B9342139B15D1A2
:1048900098466B1C6078A17801EB0021079828F8F6
:1048A000021B9842A3EB050204F1030419466FD0E2
:1048B000207801330028EDD00D4676E0022F29D074
:1048C000042F49D0012F6FD1079A9846C5EB020AF1
:1048D0003E46E91AA3786078109103EB002080B27D
:1048E000229B9847099B9847109908F8010B564559
:1048F000324604F1030408EB010505D109F1010971
:104900000BF1FF3B002503E023780136002BE1D0BB
:1049100008264AE0079A521B984610922B464FF001
:10492000010AA2786078119302EB0020229B80B2EA
:104930009847099B98471099119B28F8020B5246FB
:104940008A4504F1030402EB030521D021780AF122
:10495000010A0029E5D028E0079A521B98461092D8
:104960002B464FF0010AA2786078119302EB0020E9
:10497000229B80B29847099B98471099119B48F851
:10498000040B52468A4504F1030402EB030505D1EA
:1049900009F101090BF1FF3B002506E021780AF13E
:1049A000010A0029DFD000E0524600230593139B43
:1049B00004930B9B03930A9B01930093029601239C
:1049C0000F990E9800F080FD28E009F10109BBF174
:1049D000000F00F08E800BF1FF3B002514F803AFB1
:1049E0000AF1FF33DBB2FD2B18D8BBF1000F15DD48
:1049F000A378607803EB002080B2229B9847089947
:104A000003460C986FEA0A022818D2B2494400F013
:104A100031FC079B0135AB42E0D1D6E7BBF1000F7B
:104A20007FF410AF65E0219A089B13440D93013B7E
:104A30000B93084B0B991B68B3F90A208A420BDDD4
:104A40000A9B01330A930D9B08930A9B5B45EADBA3
:104A50004FE000BF90010020B3F90E30089A9A424F
:104A6000EEDC0C9B209A9E180023E71C0993209BE8
:104A7000079AF31A0E93099B934237DA17F8013C11
:104A800017F8020C17F8035C03EB002080B2229B9E
:104A900098478045824601D001F0CEF9FF2D1DD008
:104AA000B5B1ED43DDF82080EDB2DDF838904E452C
:104AB00008DD484653462A46414600F0DBFB09F133
:104AC0000109F4E70B9B08F101084345EDDA05E025
:104AD0000B9B08990E98721E00F08AFE099B013309
:104AE0000993209B03371E44D046C0E70F9B1C440C
:104AF000A6E715B0BDE8F08F2DE9F04F91B005465F
:104B00001F46894690461A9CFDF766FC714B186853
:104B1000C66C006D00EB0903039306EB08030493D6
:104B2000C3190593BDF80C30ADF83A30BDF810301C
:104B3000ADF83C303544BDF81430ADF838500EA80F
:104B4000ADF83E3002F04AFE20B9FFF761FA11B02D
:104B5000BDE8F08F25446B1E0693002C04DC02F0A8
:104B600053FD0028F9D1F0E71B98FEF7E4FF059B01
:104B7000DDF80C901B1B671E079309F101097FB339
:104B8000079B03EB070B0DAB394600930BAA0CAB4D
:104B9000204605F0A7FE0C9E049A0B99121BC6EB4B
:104BA000050A6B1A0AF1FF3A164401EB020818468F
:104BB000013652464946089300F098FD4246494660
:104BC000304600F093FD089B52461846594600F0C7
:104BD0008DFD42465946304600F088FD013FCCE746
:104BE000012CBCD01C98FEF7A6FF039BE31807938B
:104BF000059B1B1BA71E089397B3079BC7EB030BD3
:104C0000089B03EB070A0DAB394600930BAA0CABCC
:104C1000204605F067FE0D9E049A0C99121BC6EB08
:104C200005096B1A09F1FF39164401EB0208184611
:104C300001364A465946099300F058FD4246594606
:104C4000304600F053FD099B4A461846514600F095
:104C50004DFD42465146304600F048FD013FCBE74E
:104C6000022C3FF47CAF1D98FEF765FF039BE61E08
:104C700004EB030B002E3FF472AF059BC4EB03095A
:104C80000DAB314600930BAA0CAB204605F02AFE73
:104C90000D9A0499AB1AC6EB0B0A0F1B02EB07081F
:104CA00018460137069A0793514600F01FFD424609
:104CB0005146384600F01AFD079B069AB144184643
:104CC000494600F013FD42464946384600F00EFDC5
:104CD000013ECFE7900100202DE9F0470C1E05466C
:104CE00040F3B680082A5E6804DD102A40F39A80FB
:104CF000BDE8F087013A072A00F2AA80DFE802F057
:104D0000042DA859A8A8A885671EFB1004F18048A7
:104D100008F1FF3803F1FF3905EB880807F00707B2
:104D2000A94415F803A080253D41EDB2C7F1070362
:104D300005EA0A001841B04748F8040937B999F85C
:104D400000A0012509F1FF39072702E06D00013FAE
:104D5000EDB2013CEAD1BDE8F087671EBB1004F15B
:104D6000804803F1FF3908F1FF3807F0030715F811
:104D700003A005EB8808A944C0237D0043FA05F58C
:104D8000EDB27B00C3F1060305EA0A001841B04703
:104D900048F8040937B9032599F800A02F4609F10E
:104DA000FF3902E0AD00013FEDB2013CE9D1BDE8C1
:104DB000F087671E7B1004F1804803F1FF3908F18A
:104DC000FF3807F0010715F803A005EB8808A94490
:104DD000F023BD0043FA05F5EDB2BB00C3F10403B7
:104DE00005EA0A001841B04748F8040937B999F8AC
:104DF00000A00F2509F1FF39012702E02D01EDB2D6
:104E00000027013CE9D1BDE8F08705EB8407254484
:104E1000641B15F8010DB047E54247F8040DF8D1C1
:104E2000BDE8F0875F6937B122462946BC460223B8
:104E3000BDE8F047604705EB440705EB840537F80C
:104E4000020DB047013C45F8040DF8D1BDE8F087EC
:104E5000BDE8F0872DE9F843294C1D462369064635
:104E6000884617463BB9012320462361254B40F86D
:104E7000143F00F0EBF9E368DFF8849043B9224B6C
:104E80001B68C9F80C301BB900F070FDC9F80C00A4
:104E90000DB1E3682B607EB12368194D43B9E86812
:104EA0008000FCF74BFC2860B0FA80F56D0900E04B
:104EB00000252368336000E03546B8F1000F0DD0BF
:104EC00063680F4E3BB9F0688000FCF737FC0028A0
:104ED000706008BF01256368C8F8003067B1A36837
:104EE000074E3BB9F0688000FCF728FC0028B06052
:104EF00008BF0125A3683B602846BDE8F88300BFD2
:104F0000D0B9002095AC0008C8BB002037B502AB73
:104F1000144A43F8081D0190126819469047019001
:104F2000E8B1114B1B68DB695C690CB124680CB9F2
:104F3000254602E00099A04711E0009B013B002BB1
:104F4000009307DB01A8FEF739FF0446FDF7E4F8FC
:104F50000544F2E7204600F025F82844FFE703B0B7
:104F600030BD00BFE40100209001002037B50D46A0
:104F70000190044688B10A4B1B68DB695C6954B137
:104F8000646844B1A04709E001A8FEF717FF20B10B
:104F90000A2802D00134AC42F6DB204603B030BD13
:104FA0009001002013B502A9002441F8044DFDF73B
:104FB000C5F8019B9842B4BF181A204602B010BD34
:104FC00013B50368044602A840F8043DFEF7F6FE58
:104FD00020B10A2804D1019B236001E0012000E0F8
:104FE000002002B010BDB1F90030B0F900209A42A3
:104FF000B8BF0380B0F90220B1F902309A42B8BFBD
:105000004380B0F90420B1F904309A42C8BF8380CC
:10501000B0F90620B1F906309A42C8BFC380704784
:1050200070B5B1F90030B2F90050B1F904409D42B9
:10503000B8BF1D460646B1F902300580B2F902003C
:105040008342B8BF0346B2F9040073808442A8BF0C
:105050000446B2F90600B1F90620B4808242A8BF26
:105060000246A542F28004DC9342CCBF002001201E
:1050700070BD002070BD0000024B1B680146587CCB
:1050800000F002B8900100200128F7B506460C4652
:1050900062DC334D6B6803B19847012C04D0022CBD
:1050A00020D0002C58D133E005EB8605AF68AFB9AE
:1050B0003046FCF74DFD019000284DD0C3680D210E
:1050C0005B6A01A898470346002845D0214601980D
:1050D0009847AB680133AB6038463EE0781CA86067
:1050E00020463AE03046FCF733FD0190002833D0EB
:1050F000C3680D215B6A01A89847044600282BD09D
:105100002B6803B1984702210198A047002024E0B2
:10511000B4002B199B68012B01D0012015E030460B
:10512000FCF716FD01900028F7D0C3680D215B6ADB
:1051300001A8984706460028EFD0094B1B6803B129
:10514000984700210198B04700202544AB68002B08
:1051500018BF013BAB6000E0012003B0F0BD00BF11
:10516000BCBA00200B0E4FEA106308BF20F07F414D
:1051700030B55A43C0F30724FF23B2FBF3F29D1A64
:1051800044F080730C0A04F0FF146C4300F0FF102D
:1051900002FB0344424301F0FF1305FB0321090A0C
:1051A00004F0FF2401F0FF10204330BD2DE9F04F43
:1051B00087B006469DF850300493129B9D00109BCB
:1051C00005EB8303039300230193184B0F4690468E
:1051D000139A0199914226D0DDF848900297C24671
:1051E000B3465BF8040B029C04990593020E4A43F4
:1051F000FF21B2FBF1F254F8041B0294D2B21C68F6
:1052000040F07F40A047B9F1010940F07F404AF8E3
:10521000040B059BE5D1039A1744019A01322E44F1
:10522000A8440192D4E707B0BDE8F08FF001002058
:105230000B8892B2134403808B889B1A83804B881F
:1052400013444380CB889A1AC280704780B483B0DD
:1052500000AF7860064B1A687B685A60044A7B6826
:10526000136000BF0C37BD465DF8047B704700BF7C
:10527000C4B800202DE9F047184F3C689846B4F9AF
:105280000A308B4205460E46914624DCB4F90E30B6
:10529000994220DCB4F9083083421CDCB4F90C30AC
:1052A000984218DC00F011FB0D4B4A461C68014681
:1052B0004046A04700F0FAF83B685A7C094B53F887
:1052C0002240E3689F693246034629462046BC4691
:1052D000BDE8F0476047BDE8F08700BF90010020BF
:1052E000F0010020D4BB0020F7B50768054638461A
:1052F0000E4600F091F808B900202FE0304600F08B
:105300009FF8441C3846FCF789FA844210D1002CDF
:10531000F2D03846FCF78EFA02AD114B45F8040D79
:105320001B682246314698472846FCF7ADFA14E040
:105330002046FCF793F907460028DDD0FCF77AFAFF
:1053400002AC314644F8040DFBF763F82046FCF745
:105350009BFA2846FCF7D8F92F60012003B0F0BD76
:10536000F801002070B5840742BF02F1FF320180CE
:105370000230540824D0032C234601EB014502D807
:1053800000EB830317E000F110032646043E032ED2
:1053900043F8105C43F80C5C43F8085C43F8045C89
:1053A00003F11003F2DC043CA3085E1C00EB0610C2
:1053B000A4EB8303E4E7984202D040F8045BFAE7E9
:1053C000D30748BF018070BD10B5102100234FF0F6
:1053D0008042D418A04224BF1319001B01394FEAA0
:1053E00053034FEA9202F4D1184610BD094B00292D
:1053F00008BF1946002808BF1846431E013913F894
:10540000012F11F8010F904202D10028F7D100E0DE
:1054100001207047D0D5060837B50D4660B1FCF7BE
:1054200009FA02AC294644F8040DFFF7DFFF0546F0
:105430002046FCF729FA00E00125284603B030BDDC
:10544000024630B10346981A13F8011B0029FAD11D
:1054500070474FF0FF3070470B0E10B50D4C10D158
:10546000030EFF2B08D1636820F07F40034302EB5B
:10547000021243EA026010BD1BB9626841EA0200F1
:1054800010BD054B02EB02121B68D2B2984761684F
:10549000084310BD04020020F0010020024B5A68AE
:1054A00058601046704700BF04020020044B1B6880
:1054B0005A7C044B53F822301B691B68184700BF05
:1054C00090010020D4BB00202DE9F04F8FB0DFF811
:1054D00018E2189C0294DEF800E0199C08941D9EC6
:1054E0001B9C039405460091904601931A9F1C9CB7
:1054F0000496BEF1000F02D0DEF800407AE0029B75
:10550000089A1343012B7AD1754B01991868009BB7
:10551000B0F90A20D31A002B07DDC91A002940F37D
:10552000DB80039E06FB034400E0009A9DE84800F0
:105530001E44B0F90E30013EF61A002E03DD891B21
:10554000002940F3C98005EB0803B0F90C60013B6A
:105550009B1BB0F90860002BC8BFC3EB0808B5421D
:1055600031DA731B082FC3EB080827D00DDC022F9C
:1055700014D0042F1AD0012F26D123F0070604EBF4
:10558000E304354403F007031EE0182F18D0202F42
:1055900016D0102F18D104EB430413E023F00306B8
:1055A00004EBA304354403F003030DE023F00106EC
:1055B00004EB6304354403F0010305E01C4401E0FF
:1055C00004EB830435460023B8F1000F40F38480D8
:1055D000467C444850F82600049ED0F80CE01C930A
:1055E000039B1A9318911D961B941997DEF804409B
:1055F00043462946A4460FB0BDE8F04F6047C7F1C7
:1056000008030B93029BDFF8D8A0CDF818E0013B0C
:10561000F3460D93069B019A93425DDA009A089B2C
:1056200013440993013B0A93DAF800300A99B3F95D
:105630000A208A4248DCB3F90E30009A9A4243DCD1
:105640004FF0000907942E46CDF81490059B434572
:105650003ADAB9F1000F06D1079B93F800B0013395
:1056600007934FF008090B9B4BFA03F30BFA07F271
:1056700013F0FF015FFA82FBC7EB090904D1DAF8E6
:105680000020127C920717D4DAF80020D26B106841
:105690000C90049810B150F8213000E0DBB2136098
:1056A0000D9A0A9B00993244304600F0A1F8DAF8CE
:1056B00000300C9ADB6B1A60059B029A013305934C
:1056C000334613441E46C1E7069B01330693039BF2
:1056D0001C44099B00939DE70FB0BDE8F08F00BF0D
:1056E00090010020D4BB0020E4BB0020114B30B45B
:1056F0001C68B4F90A308B420D4619DCB4F90E303F
:10570000994215DCB4F90810B4F90C308142B8BFE5
:1057100001469342A8BF1346994209DC607C064AC1
:1057200052F82000C26894682A46A44630BC6047FC
:1057300030BC704790010020D4BB0020154B1B6883
:105740000A46B3F90A10914230B4044620DCB3F99A
:105750000E108A421CDCB3F90810814218DCB3F940
:105760000C10884214DC197C587C11F0010F0A4996
:1057700051F8200004D0C3682146DB6930BC1847CB
:10578000C168DB6B8D691B682146AC4630BC604745
:1057900030BC704790010020D4BB0020124B30B4C5
:1057A0001C68B4F9083083421BDCB4F90C30984211
:1057B00017DCB4F90A309942B8BF1946B4F90E3073
:1057C0009342A8BF134699420BDC084A647C52F806
:1057D0002440E268D5680A46AC460146204630BC03
:1057E000604730BC704700BF90010020D4BB002050
:1057F00073B5134C2468B4F90850B4F90C608542B1
:10580000B8BF05469642A8BF1646AE4215DBB4F9AE
:105810000A208A42B8BF0A46B4F90E108B42A8BFCC
:105820000B469A4209DC607C064951F82000C168A9
:1058300000930C6933462946A04702B070BD00BFF3
:1058400090010020D4BB0020082104F03BBF0000E1
:10585000024B1B689B6B1868704700BF90010020CB
:10586000024B1B68DB6B1868704700BF900100207B
:10587000024B1B68587C00F003B800BF9001002069
:10588000092104F01FBF10B50020FCF761F9041CCA
:105890004FF0010018BF0124FCF75AF900B10134A0
:1058A000204610BD024B1B68587C00F003B800BFB7
:1058B0009001002010B5FCF74BF928B1C368022114
:1058C000DB6ABDE81040184710BD08B500F004F8C9
:1058D000BDE8084000F0B0B8F7B5144F144E3B686F
:1058E0005B7C044656F82300C3680D461B6B694673
:1058F0009847BDF90030A34215DCBDF904309C4245
:1059000011DCBDF90230AB420DDCBDF906309D4221
:1059100009DC3B685B7C56F82300C3682A465B6958
:105920002146984700E0002003B0F0BD9001002020
:10593000D4BB002037B50C461546FCF709F9019099
:1059400008B901200DE0C36804215B6A0DEB01007A
:10595000984703460028F4D001982A4621469847E4
:10596000002003B030BD032104F0ACBE032004F0DE
:1059700046BF042104F0A6BE024B1B68587C00F011
:1059800009B800BF90010020014B1868704700BFA4
:10599000A4B90020012104F095BE012004F02FBF1E
:1059A000024B1B68587C00F009B800BF9001002032
:1059B000014B5868704700BFA4B90020022104F0D1
:1059C00081BE022004F01BBFAFF300802DE9F84335
:1059D000044618B387681FB3144D286820B32268A3
:1059E000B2F5807F1FDC124B1B689A42A8BF1A4693
:1059F00090460026464509DA57F82600D5F800906B
:105A0000FFF754FD49F826000136F3E7094B1B6800
:105A10000BB1204698472868BDE8F883BDE8F883B5
:105A20003846BDE8F8830020BDE8F88300BC0020BC
:105A30001C020020F0B90020044B1B685A7C044B68
:105A400053F822301B695B68184700BF90010020A3
:105A5000D4BB0020084AC0F3842300F01F01C0F328
:105A60004410D35C515C105C03EB014303EB00205A
:105A700040F07F40704700BF34C3060800F01F01AC
:105A8000074AC0F3C423C0F34510D35C525C03EB58
:105A90000243044A105C03EB002040F07F40704753
:105AA00034C30608F4C20608C343C0F3074203F038
:105AB0007F431A43030403F47F03134300F47F403E
:105AC00018437047084AC0F34413D15CC0F38423E1
:105AD00000F01F00D35C105C1B0403EB012318448F
