:020000040800F2
:10000000C8100120610200081DF0000879DF000817
:1000100019F00008AB9E00081D0501080000000053
:10002000000000000000000000000000A101000826
:10003000ADA1000800000000FD01000819FA000849
:100040007B0200087B0200087B020008DDF000084C
:100050007B0200087B0200087B0200088DAD0008CF
:1000600097AD0008A1AD0008ABAD00087B02000809
:100070007B0200087B0200087B0200087B0200086C
:100080007B0200087B0200087B0200087B0200085C
:100090007B0200087B0200087B020008B5AD000867
:1000A0007B0200087B0200087B0200087B0200083C
:1000B0007B0200087B020008FDFA00087B020008B2
:1000C0007B0200087B0200087B0200087B0200081C
:1000D0007B0200087B0200087B0200087B0200080C
:1000E0007B02000821F000087B0200087B02000868
:1000F0007B0200087B0200087B0200087B020008EC
:100100007B0200087B0200087B0200087B020008DB
:100110007B0200087B0200087B0200080DFB000840
:100120007B020008E19E00087B0200087B020008B9
:100130007B0200087B0200087B0200087B020008AB
:100140007B0200087B0200087B0200087B0200089B
:100150007B020008F19E00087B0200080D050108E3
:100160007B0200087B0200087B0200087B0200087B
:100170007B0200087B0200087B02000800000000F0
:100180007B0200087B020008DFF810D000F030FC92
:1001900000480047911A0108AFF30080C810012001
:1001A0002C4B19680868B0E8F04F80F30988BFF35A
:1001B0006F8F4FF0000080F311887047000000003F
:1001C00008480068006880F308884FF0000080F35A
:1001D000148862B661B6BFF34F8FBFF36F8F00DF35
:1001E00000BF00BF08ED00E0DFF80C00016841F43B
:1001F00070010160704700BF88ED00E0EFF30980F7
:10020000BFF36F8F134B1A681EF0100F08BF20ED5D
:10021000108A20E9F04F106009B44FF0500080F3CD
:100220001188BFF34F8FBFF36F8F13F05DFE4FF058
:10023000000080F3118809BC19680868B0E8F04F25
:100240001EF0100F08BFB0EC108A80F30988BFF3CE
:100250006F8F704784000010EFF305807047000037
:100260000648804706480047FEE7FEE7FEE7FEE750
:10027000FEE7FEE7FEE7FEE7FEE7FEE7E9FA000835
:10028000890100082DE9F05F0546002092469B4653
:1002900088460646814640241BE02846414647469C
:1002A000224600F087FA53465A46C01A914110D3AD
:1002B00011461846224600F06EFA2D1A67EB010827
:1002C0004F4622460120002100F065FA17EB000995
:1002D0004E41201EA4F10104DFDC484631462A4687
:1002E0004346BDE8F09F10B5441A0346944209D234
:1002F0008418114403E011F8013D04F8013D521E39
:10030000F9D210BD40EA0104A40703D009E010C9E6
:10031000121F10C3042AFAD203E011F8014B03F8AC
:10032000014B521EF9D210BDD2B201E000F8012BF0
:10033000491EFBD270470022F6E710B513460A4665
:1003400004461946FFF7F0FF204610BD421E12F882
:10035000013F002BFBD111F8013B02F8013B002BC0
:10036000F9D1704730B505462A460B4612F8010B05
:1003700013F8014B08B1A042F8D01CB1002802D0FC
:100380006D1CF1E7284630BD421C10F8011B002906
:10039000FBD1801A704770B5064610F0FDFD046869
:1003A00005460A220021304600F026FA2C6070BD76
:1003B0002DE9FE4F804681EA0300C00F0C460090F5
:1003C00021F0004123F00045B8EB0200A94105D21D
:1003D0004046214690461C460B46024623F000400C
:1003E000104347D0270DC7F30A00C3F30A51029008
:1003F000401A019040286BDAC3F3130040F4801BCD
:100400000098924620B10023D2EB030A63EB0B0B5A
:1004100001985946C0F14002504600F0BCF906462A
:100420000D4650465946019A00F0D4F910EB0800E9
:100430006141002487EA115284EAE7731A4340D0ED
:10044000009A62B3019A012A4FEA075215DC001B99
:1004500061EB02014FF0004202EA0752CDE900428F
:10046000001C41F5801132462B4600F043FA03B0E0
:10047000BDE8F08F40462146F9E7001B61EB020121
:10048000001C41F5801300185B412018A2F50017ED
:1004900047EB030140EAD570B6196D4111E06D08D4
:1004A0004FEA360645EAC0754FEA0752001B61EB7A
:1004B0000201001C41F5801149084FEA3000001983
:1004C000514132462B4603B0BDE8F04F00F003BA6D
:1004D0000098012240000023D0EB020263EBE0739E
:1004E000009821464FEAE074B8EB000061EB04018C
:1004F000E9E783F000435BE781F0004158E72DE92D
:10050000FE4F81EA030404F0004421F0004100940E
:100510004FF0000B23F0004350EA01045ED052EA92
:1005200003045BD0C3F30A54C1F30A552C44A4F26C
:10053000F3340194A0FB0254C1F3130141F4801180
:10054000C3F3130343F4801301FB024400FB034E87
:10055000840A970A44EA815447EA8357A4FB076850
:1005600002958D0A05FB07854FEA932C04FB0C547A
:100570002705029D4FEA065847EA1637B5EB0805EE
:100580006EEB070C870E920E47EA811742EA831240
:10059000A7FB0201B6EB0B0164EB00042B0D43EA51
:1005A0000C335E1844EB1C50DA465146E7FB02015F
:1005B000C5F313044FEA0B3343EA14534FEA0432F2
:1005C000019C43EA0603A4F10C040294009CCDE9CB
:1005D00000B400F08FF903B0BDE8F08F00200146B1
:1005E000F9E72DE9F04D81EA030404F0004B21F016
:1005F000004514464FF0000A23F0004150EA05027E
:1006000020D054EA01021DD0C5F30A570246C5F3B3
:100610001303C1F31300C1F30A5640F4801543F4E9
:100620008013A7EB0608101BD64608F2FD3873EBC3
:10063000050002D308F1010801E092185B41B8F10E
:10064000000F03DA00200146BDE8F08D00204FF4D2
:100650008011064684460EE0171B73EB050705D391
:10066000121B63EB050306434CEA010C49084FEAF1
:10067000300092185B4150EA0107EDD152EA0300C5
:1006800012D082EA040083EA0501084305D0101B5A
:10069000AB4106D20122002306E000224FF00043C6
:1006A00002E06FF0010253101AEB06004CEB085108
:1006B00010EB0A0041EB0B01BDE8F04D00F00BB967
:1006C0000EB540F2334102910021CDE900110A46F6
:1006D0000B4600F00FF903B000BDC1F30A5210B58C
:1006E000C1F3130140F2FF3341F480119A4201DA61
:1006F000002010BD40F233439A42A2F2334203DCA1
:10070000524200F057F810BD904010BD00F000427A
:1007100030F000400AD0C10D01F56071C0F3160041
:1007200042EA0151C20840071143704700200146C8
:10073000704701F0004330B421F0004150EA01025B
:1007400006D00A0DA2F56072C1F31301002A02DC83
:1007500030BC00207047440F44EAC104C100E018D7
:1007600030BC00EBC25000F07FB830B50B460146FC
:1007700000202022012409E021FA02F59D4205D340
:1007800003FA02F5491B04FA02F52844151EA2F1EA
:100790000102F1DC30BD202A04DB203A00FA02F12C
:1007A000002070479140C2F1200320FA03F319435F
:1007B00090407047202A04DB203A21FA02F0002101
:1007C000704721FA02F3D040C2F120029140084361
:1007D00019467047202A06DBCB17203A41FA02F06F
:1007E00043EAE07306E041FA02F3D040C2F120028E
:1007F00091400843194670472DE9F04791460F464E
:1008000080460446002614F8015B2DB100F002F981
:100810000068405DC007F6D12B2D02D02D2D18D0D9
:10082000641E4A463946204600F0F8F827B1396878
:10083000A14201D1C7F8008071054FF002040BD529
:100840004042002803DD10F0A7FB0460A007BDE8CC
:10085000F08746F48066E4E70028F8DA10F09CFBA5
:1008600004606FF00040F2E70029A8BF7047401C09
:10087000490008BF20F00100704710B4B0FA80FCB6
:1008800000FA0CF050EA010404BF10BC704749B1F3
:10089000CCF1200421FA04F411FA0CF118BF012163
:1008A00021430843A3EB0C01CB1D4FEA00614FEA43
:1008B000102042BF002010BC704700EBC350104412
:1008C0000029A4BF10BC7047401C490008BF20F09D
:1008D000010010BC704710B5141E73F1000408DA53
:1008E000401C41F1000192185B411A4301D120F0F4
:1008F000010010BD2DE9F04D92469B4611B1B1FAB1
:1009000081F202E0B0FA80F220329046FFF743FF16
:1009100004460F4640EA0A0041EA0B0153465A4694
:10092000084313D0114653EA010019D0C8F1400220
:100930005046FFF73FFF05460E4650465946424691
:10094000FFF729FF084305D0012004E0204639467F
:10095000BDE8F08D0020054346EAE0762C4337439E
:100960000A986305E40AA0EB08000022FD0A44EAA5
:1009700047540A3002D500200146E9E70105101965
:100980006941DDE9084500196941BDE8F04DA2E77C
:10099000C1F30A52C1F3130140F2FF3341F4801155
:1009A0009A4202DA00200146704740F233439A42ED
:1009B000A2F2334202DC5242FFF7FCBEFFF7EBBE6D
:1009C00030B5041E71F1000404DB4FF000444042D6
:1009D00064EB0101141E73F1000405DB1C464FF0AB
:1009E0000043524263EB0403994208BF904230BD7A
:1009F000064C074D06E0E06840F0010394E807006C
:100A000098471034AC42F6D3FFF7C2FBB4AF0308EB
:100A1000F4AF03080048704704A103082DE9F05F14
:100A200082460078002715468B460AF10104B94634
:100A3000302801D09DB113E014F8010B012778286C
:100A400003D0582801D045B10AE00DB1102D07D1CF
:100A50000027102514F8010B02E0082500E00A2504
:100A60000026B0460EE005FB080005FB06F1012755
:100A700001EB10461FFA80F8B6F5803F00D3B94667
:100A800014F8010B294600F018F80028EBDABBF146
:100A9000000F05D00FB1641E00E05446CBF80040B3
:100AA000B9F1000F06D010F077FA02210160C81EDC
:100AB000BDE8F09F48EA0640FAE73A2800D230380D
:100AC00020F02002412A01D3A2F13700884201D34D
:100AD0004FF0FF30704770B58C1810F8015B15F0BF
:100AE000070301D110F8013B2A1106D110F8012BA0
:100AF00003E010F8016B01F8016B5B1EF9D12B07C5
:100B000005D40023521E0DD401F8013BFAE710F87A
:100B1000013BCB1A921C03E013F8015B01F8015B67
:100B2000521EF9D5A142D8D3002070BD0A2810B5B5
:100B3000044603D1BDE8104000F002BD0D2810D0DE
:100B400000F0CEFF074B1B68DB6920461B68984707
:100B5000054B1B680BB120469847BDE8104002F0DA
:100B6000C9BD10BD20010010BCD000202DE9F0410E
:100B7000D0F80C8086B0044600200E46174602F0DE
:100B80006FFB0546B8F1000F05D098F8043013B19B
:100B900040F0020001E025F0020002F061FB216953
:100BA00069B101206388228803900290E068019077
:100BB000A06800900C6830463946A0471FE0DFF877
:100BC0005080124BD8F800201B68527CE068214608
:100BD0009847E18820B9012904BFD8F80030986B04
:100BE000638822880590A0680490A0880291012162
:100BF0000390019100913046394603F099FD284653
:100C000006B0BDE8F04102F02BBB00BF10010010A0
:100C10002001001008B50E4B186802F005FB0D4BC3
:100C2000186802F00CFB012002F074FB002002F0B7
:100C30007FFB002002F08CFB002002F011FB064B32
:100C4000186802F019FB0020BDE8084002F034BB30
:100C50001C01001018010010140100104D4B2DE96B
:100C6000F04F1A68D169CC69A38983428BB008D848
:100C7000E589854205D325680695C31A4FF0FF36EE
:100C800013E0A368002B7CD01D88A84279D35E882E
:100C9000864276D35B6866680696401B80B203EB9B
:100CA000800533F92030B5F902600993581C68D0EB
:100CB00091F818B0B2F92A90A17C364DB2F92270A1
:100CC000B2F9248094F810A01BFB01F34846079367
:100CD00004F0B6F92968079BCA69896B05910890E9
:100CE00006991846099B00FB03100490A37C03930C
:100CF00001230293D37E0193937E009352465B4679
:100D00004146384603F014FD731C1AD049F0020026
:100D100004F096F92A680699D369926B0592079AAE
:100D200002FB06160496A27C039201220292DA7E4E
:100D300001929B7E009352465B464146384603F043
:100D4000F7FC2B68DB695A7E1B7E9A4215D9B9F1F4
:100D5000020F12D089F0040004F072F90D4B1B68E9
:100D6000DB69187ED97E9A7E5B7E00FB018143445D
:100D70000AFB0272384603F045FE9DF8200004F09D
:100D80005FF9044B617C1A68538C0B4453840BB09D
:100D9000BDE8F08F20010010044B1B68DB69DB69A4
:100DA00009B11A7C0A60587C704700BF200100100E
:100DB00002230B807047C3699A898A4202D8DA8974
:100DC0008A420FD2986880B1038899420CD3428836
:100DD0008A4209D3C91A436833F82100C043C0F3DB
:100DE000C030704701207047002070472DE9F04364
:100DF000244C2368B3F92A80DB6987B00546014695
:100E0000D86900F066F8002838D00388D0F804903C
:100E1000ED1A09EBC5064046B77804F011F91A4BF4
:100E200019F835201B6880462068A3B1C1690025E8
:100E300091F818E0B0F92410B0F922000595756812
:100E400004950425029501250397019500951D68D9
:100E50007346A8470AE0C3697568B0F924101B7E81
:100E6000B0F922000195009700F09CF8404604F08C
:100E7000E7F822687178538C0B44538407B0BDE8BF
:100E8000F08300BF20010010B4D0002038B50A4B19
:100E90001B68DB6904460D460146D86900F019F865
:100EA00048B10388E41A436803EBC402507815B1D3
:100EB00013F834302B6038BD2001001011230B8053
:100EC000704708B5C06900F004F8003018BF012071
:100ED00008BD38B103888B4202D843888B4201D2C7
:100EE0008068F6E7704700002DE9F047DFF864807E
:100EF000DFF85890DFF858A00025D8F800309D4260
:100F000017DAD9F80070DAF800107C266E43BC19A5
:100F1000231D74221846FFF7E6F90022BA5104F1A6
:100F20000C02A26104F10802E063226460640135EE
:100F3000E3E707F0F3FE054B1A687C2303FB002070
:100F4000034B04301860BDE8F08700BF18CF0020C5
:100F5000200100102C01001070B50E4E0E4B0F4DED
:100F6000304640F80C3F03F02BFB2C687C235C439D
:100F7000204600F0D7F80A4B306022461B6800215B
:100F800098474FF0FF336B600AF04CF8BDE87040B3
:100F900007F0C4BE18CF0020319000082C010010CB
:100FA000840000202DE9F04F2D4C2468257C87B06B
:100FB000AD070190029103920493109FDDF84480E5
:100FC00043D4A36B1D68E36B264C1E6863689E4286
:100FD00002D1A3689D4223D0284603F027FE824613
:100FE000304603F023FEDFF88CB0C4F80CA0814635
:100FF0000124E2B2DBF80030514648469847194BCD
:1010000003F10C0242F8240001340F2CF1D11648F0
:10101000C3F84890059303F0D3FD059B5E609D6087
:101020001248BDF80C300382BDF810304382104BDB
:10103000029A1B7801998782C0F8188003721030D9
:1010400007B0BDE8F04FFFF791BD084CCDF84480E4
:1010500010972468A44607B0BDE8F04F604700BF72
:1010600020010010740E00104C00002048000020E9
:10107000A0D000208800002010B5044638B100F050
:101080002FFD204605F0DEFE044602F033FB20462D
:1010900010BD000073B5054600F022FD2846FFF79D
:1010A000EBFF064660B100F0ADF802AC074B44F828
:1010B000040D1B682A4600219847204600F0CCF812
:1010C00002F018FB304602B070BD00BF8400002063
:1010D000024B21F00301186059607047C00E0010E8
:1010E00010B5044680B100F0FBFC084B5B6B03EBD2
:1010F000C4035968486805F053FE204608F0C8F854
:10110000BDE8104002F0F6BA10BD00BFD8CF0020F5
:1011100028B1034BDA6B026002B15060D8637047AC
:10112000D8CF00202DE9F0410746264E033707F0BF
:1011300093FE27F00307306CF26B0437874238BF09
:101140000746144634B154F8043C9F4223682CD01F
:101150001C46F7E7F368B26B02EB030858F8045C2F
:10116000C5EB08052B6833B1204608F0D3F858F8D2
:10117000045CC5EB08052B680BBB6B689F421EDC4B
:1011800028461C1D08F0A6F8F3686868DB1BF360AE
:101190007369E41B3B44C01B2C44736102D0294695
:1011A00005F0FEFD44F8047C09E00BB1616859606C
:1011B000616801B10B60A24201D12368F36320464C
:1011C000BDE8F081D8CF002008B507F045FE0C4AF5
:1011D00000239918D1F8BC0010B1836800200BE0FF
:1011E000083B13F1800FF4D108E05A689B689042E5
:1011F00038BF104613B19B68002BF6D10C3808BDE0
:10120000D8CF0020054BDA690132DA615A6B12F847
:101210003030013302F8303000F036B8D8CF00203B
:1012200010B500F05DFCFFF7CFFF0A4BB0F5800F63
:101230008CBF1B6A1B6A4FF0640487BF90FBF4F0FD
:1012400003FB00F45843B0FBF4F402F053FA2046D9
:1012500010BD00BFD8CF002030B50368094953F84E
:10126000085C4C6B14F83530012B03D9CA690AB1FC
:10127000013ACA61013B04F8353000230360184687
:1012800030BD00BFD8CF0020034B5B6B03EBC00029
:1012900040680830704700BFD8CF0020F8B514462A
:1012A00006460D4600F01CFC204600F0EFFA154FF4
:1012B000142348B103FB047463689A685968AA1A36
:1012C000711A01F0E9FF18E003FB0473DA68B24217
:1012D00002D11B69AB4210D0142303FB047358697D
:1012E00030B15B689A685968AA1A711A01F00EFD4C
:1012F000142303FB0474E6602561BDE8F84002F0A6
:10130000F9B900BF70CF0020C3B2CAB29A1A92B224
:1013100010B514B2002CBCBF524214B2C0F3072364
:10132000C1F307229B1A9BB2090C1AB2C1EB104100
:10133000002A89B208B2BCBF5B421AB20028BCBF07
:10134000494208B2524304FB042280B200FB002051
:1013500010BD000010B50021084600F033FB044921
:1013600043F6FF731A460846BDE8104000F002B885
:1013700001C0FFFF2DE9F34116461F4604460D4606
:1013800000F0AEFB042003F05BFE144B1B69DA6C2B
:101390001B6D804614441D4416441F446846ADF836
:1013A0000040ADF80460ADF80250ADF8067005F0ED
:1013B00091F838B9404603F043FE02F09BF902B0C1
:1013C000BDE8F0813B4632462946204603F01AFB31
:1013D00004F096FF0028F5D1ECE700BF10010010E3
:1013E000012BF8B506460D4617461C4601DD0020C8
:1013F000F8BD1C20FFF796FE0028F8D00DB105615E
:1014000009E0094B53F8241029B10B680BB11946B8
:10141000FBE70B6903610023836084618782C660F8
:1014200003604360F8BD00BFA8D0002038B51D465A
:10143000FFF7D6FF044648B100F00EF8E3681B68DA
:1014400023B9034B16351B6843F82540204638BDA9
:1014500020010010FFF75CBE30B508B9012030BD97
:101460008469012CFADC1B4B1A789442A4BF621CDD
:101470001A70194A52F8243015461BB942F8240054
:10148000184630BD5A680AB11346FBE7C2681268B5
:10149000D9680968914203DD1B68002BF8D1DDE7AC
:1014A00009D1818A012906D1196821B10B46C96881
:1014B00009688A42F8DD5A6812B11060426001E0A2
:1014C00045F824005860984208BF002303600020BC
:1014D00030BD00BFA1D00020A8D0002010B520B1A1
:1014E0000468FFF7B9FF2046F9E710BD81690A4A91
:1014F00052F821309842036804D142F821300BB1F0
:1015000000225A60426802B11360036803B15A6056
:101510000023036043607047A8D00020002070477C
:10152000012809DC054B53F8200020B1C3681B6873
:101530001BB10068F9E7704700207047A8D0002071
:1015400008B500F0CDFA00F0ABF9054B1B689A8C9A
:1015500010441A8C98845A84BDE8084002F0CAB836
:10156000200100102DE9F04F054685B0002800F05D
:101570008480434C00F0B4FA00F092F923680746E7
:10158000B3F9228000F0F0F92268938C86B29B1B9D
:101590009384A1462B78002B61D047F6FF71284633
:1015A00002F0C0FE01468246284602F08BFE226809
:1015B000938D03F00303012B04D0022B04D190FB85
:1015C000F3F302E0034600E00023518CCB1A9BB2F8
:1015D00019B21FFA80FB5184ADF80810B2F924202B
:1015E000ADF80A200BF1FF310B44ADF80C30013A95
:1015F000BBB21A44ADF80E20514602AA2846019308
:1016000002F06EFA2268BDF80A109184284651460D
:1016100001F05AFF2A5C019B0A2A05EB000E01D05B
:101620000D2A12D12268918D01F00301013901299F
:101630008ABF118CA2F8228051849EF800100A29DA
:101640000AD1918C0B44938406E0BDF80800D9F8C8
:1016500000308344A3F822B09EF8003053B92368C9
:101660009A8C16449A8D9E8422F003029A8502F089
:1016700041F802E00EF101058CE705B0BDE8F08FFE
:101680002001001070B50E461546044600F028FAF9
:10169000054B1B6820465E849D84FFF763FFBDE811
:1016A000704002F027B800BF20010010F8B50B4BC6
:1016B0001B680546B3F92C0040F002000E461746A1
:1016C00001F036FE3A46044631462846FFF7DAFF77
:1016D0002046BDE8F84001F02BBE00BF20010010FD
:1016E00073B5064615460C4600F0FAF9114B1B6817
:1016F000DA6C1B6D1D443388ADF802501444013B75
:101700002344ADF804307388ADF80040013B2B440E
:101710006846ADF8063004F0DDFE18B901F0EAFFC6
:1017200002B070BD2A4621463046FFF71FFA04F08A
:10173000E7FDF2E72001001010B5002400F006F8E4
:1017400008B10124FAE7204610BD00000C4B10B58B
:101750001C681CB1A047041C18BF012404F05CF8ED
:10176000084B1B68002818BF01241BB198470028AC
:1017700018BF0124044B1B6803B19847204610BDD5
:10178000D0100010C0D00020CC10001013B50B46B4
:1017900030B1C488818800928268204600F002F847
:1017A00002B010BD30B50428039D27D010DC0128FD
:1017B00018D0022838D1694302EB93026FEA430044
:1017C000525C00F0060022FA00F000F0030030BD89
:1017D00010281DD0202821D0082825D105FB012163
:1017E000C85C30BD694302EBD302D843525C00F0C1
:1017F000070022FA00F000F0010030BD02EB5302B6
:101800006943DB07505C4CBF00F00F00000930BD9E
:101810004C1005FB043332F8130030BD8C1005FB6F
:10182000043352F8230030BD002030BD034B53F881
:101830002000C36808219B6A184700BFA8D0002079
:1018400010B5044600F04CF9054B1B68DB6900211C
:101850005B6820469847044601F04CFF204610BDC7
:101860002001001038B504460D4600F039F9064B4A
:101870001B68DB6929465B6820469847044601F0EF
:1018800039FF204638BD00BF2001001001289ABF53
:10189000024B53F820000020704700BF7C1000105E
:1018A00010B500F01DF9044B1B68DB695C7E01F08C
:1018B00021FF204610BD00BF20010010024B002276
:1018C00018681A60704700BF780F001070B50446A2
:1018D0000E46154600F004F920462A46314603F02C
:1018E00023F9044610B1002333602B6001F002FF9E
:1018F000204670BD38B505460C4600F0F1F8064BA1
:10190000B3F900302B60054BB3F900302360BDE81C
:10191000384001F0EFBE00BFBE100010C010001034
:1019200010B5044C236813B903F020F92060206837
:1019300010BD00BFCC0E001010B5044C636813B985
:1019400003F028F96060606810BD00BFCC0E001085
:1019500004483523037034238370C37061230371FB
:10196000704700BF6C00002010B500F0B9F80C4BB8
:101970001A68938D03F00C03082B07D00C2B05D0AD
:10198000042B07D1D3691C7E013C04E0D3691C7E83
:10199000640800E0002401F0ADFE204610BD00BF49
:1019A00020010010024B53F820301B691868704763
:1019B000A8D00020024B53F820301B6958687047AC
:1019C000A8D0002038B505460C4600F089F8044B35
:1019D0001B685D849C8401F08DFE002038BD00BF33
:1019E0002001001090B583B000AF344A334B1B6820
:1019F00023F001031360324B01221A6000BF304B09
:101A00001B68002BFBD12F4B2F4A1A602D4B1B68F4
:101A10002E4A934200D0FEE701F04CFF2C4B2E22C1
:101A20001A7009F0FDFA2B4807F0D6F907F092FF7B
:101A3000786003F0A3F80346002B0CBF01230023BA
:101A4000DCB203F0AFF80346002B0CBF01230023E8
:101A5000DBB22343DBB2002B09D003F098F8044635
:101A600003F0A9F803461946204603F0E3FA0021E3
:101A7000002001F02FFC04F021F9FFF735FA164B96
:101A80001B68002B12D00DE0134B1B681B68002B4A
:101A900003D0114B1B681B6898470F4B1B685B6892
:101AA0000D4A13600C4B1B68002BEDD10B4B012230
:101AB0001A707B6818460C37BD4690BD002000E0C8
:101AC0000830024000300240C2A507F4CDB5E8B5A9
:101AD000BC100010DC0E0010540F0010C2100010DB
:101AE0002DE9F041194C636823B109F095FAA36818
:101AF000984204D009F0BCFA09F08EFAA06063683D
:101B0000DFF848800133012B63601CD107F006F930
:101B10000F4A536898420746164614D0002B11DB33
:101B2000D8F800507C2404FB0355FFF7F7FCD8F8E5
:101B30000030A86704FB0734064BA06F221D1A6013
:101B4000FFF7CCFC7760BDE8F08100BF18CF002024
:101B50002C0100102001001013B5044618B9104BD9
:101B60001B681C6ED4B1FFF7BBFF2046FFF74AFB92
:101B700002AB446943F8080D1846FFF76DFB5CB1F2
:101B80002046FFF73FFB02AC836844F8040D9B68D6
:101B900098472046FFF760FB01F0ACFD02B010BD96
:101BA00020010010014A114600F002B801F0FFFFC9
:101BB0002DE9F0430C4685B015460646002845D071
:101BC000FFF78EFF002001F04BFB224B1B680746FE
:101BD0003046D3F86080FFF715FB036801909869E1
:101BE00001F006FB019A1C4B9C42138904BFB2F919
:101BF0000440B2F90650ADF80840013B2344ADF86B
:101C00000C305389ADF80A50013B2B448146ADF8A6
:101C10000E3003F01FFC01A8FFF71EFB02A804F022
:101C200059FC58B9484601F0E3FA404600F0ACF9D7
:101C3000384601F015FB01F05DFD07E02A4621461C
:101C4000304600F07FFB04F05BFBEAE705B0BDE83F
:101C5000F08300BF2001001001F0FFFF2DE9FF47D6
:101C60000C9D07469A4688469146FFF739FF194B67
:101C70001B68587C184B53F82040E3681B68042B02
:101C800006D02468002CF8D1FFF74AFC0446E8B1DE
:101C9000E3680121DB6A20469847064698B124692B
:101CA000A3689847013008BF0C4C029408BF45F068
:101CB00001058DE8600053464A464146384600F02B
:101CC000FBF9044600E0044601F014FD204604B090
:101CD000BDE8F08720010010A8D00020F8AE03086E
:101CE00037B50446F0B1FFF7FBFE0F4B1B681B6EC8
:101CF0009C4201D101F06EFA2046FFF783FA019071
:101D0000406908B101F0DCFC02AD55F8043D1868EB
:101D1000FFF7A0FB2846FFF79FFA2046FFF7E0F900
:101D200001F0E8FC03B030BD200100102DE9F04FB8
:101D300087B00646039298460291FFF7D1FE544BB6
:101D40001A68547C534A1257012A20469B4606DDE6
:101D500002F01AFF8146204602F02AFF05E002F059
:101D6000FCFE8146204602F0FEFE044636B305A97D
:101D700004A8FFF7BFFD049A059BB6F90070B6F9F9
:101D80000250914409F1FF321C44B6F90490B6F9AF
:101D9000063027EAE77725EAE575013C4A45D4BFD6
:101DA000C7EB0209C7EB09099C42D4BFC5EB040489
:101DB000C5EB030409F10109013401E0354637465A
:101DC000B8F1000F01D1C4F10008B9F1000F01DD35
:101DD000002C03DC01F08EFC002055E0109B0093EA
:101DE0004A46434629463846FFF738FF064630B98B
:101DF0000398029B984701F07DFC012044E000F02D
:101E00007DF88442804606D0DBF80030986C10B133
:101E1000322104F0F2FE304600F0B6F8A2464FF050
:101E20000009D04503DD5146304600F091F8B9F184
:101E3000000F08D0304605EB0902394600F0CEF815
:101E40003046FFF789FE029B03989847124B1B68A8
:101E50000BB1FF2098473046C144FFF7A3FE4C4525
:101E6000C8EB0A0ADDDC3046FFF73AFF002000F03D
:101E70008BF84445AED0DBF80030986C0028A9D030
:101E8000332104F0BAFEA5E707B0BDE8F08F00BF2C
:101E900020010010A3D00020D4CF002037B5044685
:101EA00098B1FFF71DFE2046FFF7ACF9036802ADBD
:101EB0001B6945F8040D9B68984703F0B4FA044683
:101EC0002846FFF7C9F901F015FC204603B030BDE4
:101ED00013B5044670B1FFF703FE2046FFF792F9F1
:101EE00002AB00F1180443F8040D1846FFF7B4F9EB
:101EF00001F000FC204602B010BD000013B50446FE
:101F0000FFF7EEFD1CB90A4B1B681C6E54B120464E
:101F1000FFF778F902ABB0F90A4043F8040D184610
:101F2000FFF79AF901F0E6FB204602B010BD00BFB2
:101F30002001001038B505460524284605F038F97B
:101F400010B9013CF9D138BDBDE8384000F078B88F
:101F500037B50D46044618B90A4B1B681C6E7CB198
:101F6000FFF7BEFD2046FFF74DF9B0F90A300190AA
:101F7000AB42C8BF458101A8FFF76EF901F0BAFB7B
:101F800003B030BD20010010F7B50646FFF7A8FDED
:101F9000114B1A681C46176E16B901F01BF916E0B2
:101FA0000FB101F017F903F059FB3046FFF72AF99A
:101FB00002AD236845F8040D1E660068FFF74CFA71
:101FC0002846FFF749F903F0F1F803F013F801F0A0
:101FD00091FB384603B0F0BD2001001073B50D46EB
:101FE0001446064618B9154B1B681E6E26B3FFF73C
:101FF00077FD3046FFF706F924B22DB2C480858004
:10200000009002F0F7FF009B586980B1FFF7FAF8E3
:10201000009B0190B3F90820B3F90A308280C38095
:1020200012B10BB10580448001A8FFF715F968468D
:10203000FFF712F901F05EFB02B070BD2001001045
:10204000014A114600F002B801F0FFFF7FB50C46CF
:102050001546064660B3FFF743FD3046FFF7D2F85A
:10206000144B01909C42038904BFB0F90440B0F9BD
:102070000650ADF80840013B2344ADF80C304389CD
:10208000ADF80A50013B2B4401A8ADF80E30FFF724
:10209000E3F802A804F01EFA10B901F02BFB07E0E8
:1020A0002A462146304600F031F904F029F9F3E7D9
:1020B00004B070BD01F0FFFF2DE9F04F464D87B031
:1020C0001C462B68109F5B7C81468A46904612997D
:1020D00011980022FFF784F90395064680B303693F
:1020E0009B68984703F09FF900FB08F50290FFF703
:1020F00097F817F0010708BF042305F1070504BF8F
:1021000090FBF3F000EB4000002C4FEAD50544DCD7
:102110001DB11838B0FBF5F000E028466442844257
:10212000A8BF044677B90097234642465146484621
:1021300001F048FA002C834639DC3046FFF78AF973
:10214000002046E0002CF8DD05FB04F01830FEF717
:1021500093FF07460028F0D04FF0000B3846FFF7FA
:1021600051F8034606A8029A40F8043DA3F80490EB
:102170001E60A3F806A0A3F808805C81DD601A61E8
:10218000C3F814B0FFF768F8129B3361039BB76084
:102190001B685B7CB36138461BE0002FD4D10097ED
:1021A000234642465146484601F00CFA834605FB59
:1021B00004F01830FEF76EFF07460028CED13046F7
:1021C000FFF748F9BBF1000FBAD05846FEF788FF79
:1021D000E1E707B0BDE8F08F200100102DE9F047DE
:1021E000454D464BD5F800E0454E9EF81140D6F8D7
:1021F00000C053F824408CB007460591049223692F
:10220000BCF1000F12D0E268DEF86010126819B954
:10221000B2FA82F2520905E0072A04D0394A991A23
:102220004A424A412AB9049A0599384607F0EAF920
:102230005FE03846FEF7E6FF03460CA8B3F9084016
:1022400040F8083DB3F90A90D3F80C80FFF704F882
:1022500008AB06AA05A9204604F06EFE069B002BDB
:1022600047DD09AB07AA04A9484604F087FE079B8F
:10227000002B3EDD3846FFF72BFE099B089F03FB32
:1022800004772B6800EB8707186E28B3DDF81490ED
:10229000049DFEF7B7FF04460CA8B4F90630D4F845
:1022A0000CA040F8044DED1AB4F90430C3EB090951
:1022B0004FEA89090AFB059518352C44FEF7CCFF37
:1022C000BCB1CDF80480CDF800A03568079B069A14
:1022D00039462046A8470CE0587C079B0193069B93
:1022E0000093A400084B02941C68049A05993B468D
:1022F000A0470CB0BDE8F08720010010A8D0002056
:10230000B0D00020F8AE0308C41000102DE9F3414E
:102310000F4690460646FEF775FF036802ACDB6881
:1023200044F8040D5B6A16210020984705462046B4
:10233000FEF792FF1DB1424639463046A84702B02B
:10234000BDE8F0812DE9F04F9BB005460891099258
:10235000002800F09983FEF755FF1AAB446943F853
:102360001C0D1846FEF778FF2846FFF797FD082852
:102370000746A54E02DD002C00F0C981012300278D
:10238000284619930D931897FEF73CFF0268B0F9A1
:102390000A3012690E930DF168095368326849F8E2
:1023A000140D0469D0F81480D0F80CA0B0F908B06E
:1023B000507C0C93FFF73AFA32680B90507CFFF791
:1023C000F9FA0A904846FEF747FF082C0A9A0D9B37
:1023D00004D9102C8CBF0423022305E0012C03D167
:1023E00018AB0D940A9301E00D930A970C9B93424E
:1023F00000F0DF803368587CFFF7D4FA0F904FEA83
:102400008B00FEF739FE1090002800F03D8328462F
:10241000FFF75EFD0546B8F1000F00F0B9804046B9
:10242000FEF7F0FE05EB0A0311930023DDF824907C
:1024300016900993119B099ACAEB03070E9B9342CE
:1024400040F3A2801698099A0023179383680DF130
:102450005C085B69414698478345054628D110983A
:10246000FEF7D0FE0F9B0193082C0C9B14900146A5
:1024700000935A460B9B384602D904F004FE01E053
:1024800004F020FE0A9B05931AAD089855F8183DF4
:102490000493002303930B9B029301230193009366
:1024A0005A46494602F044F92846FEF7D5FE62E056
:1024B000012C02D04FF0010857E0002D5BD0179897
:1024C000089ECDF80CA000F0070306930A9B059325
:1024D000082390FBF3F33B44049301232A46029321
:1024E000019300934946304402F072FE179B169800
:1024F000099A1D44836817955B69414698470546CC
:10250000DBE71098FEF77EFE0F9B149001460D9EB0
:1025100017980193082C0C9B00932A460B9B00FBF9
:10252000067025D904F0AFFD0A9B0593149B049314
:102530001798089ECDF80480002303930B9B029309
:102540002A46012349463044CDF8008002F0F0F8D5
:1025500014A8FEF781FE179B1698099A1D448368FC
:1025600017955B6917A998470546002DC9D102E068
:1025700004F0A8FDD8E7099B01330993119B53444C
:10258000119309F1010955E716A8FEF765FE0EE063
:102590000A9B05930123049001930093CDF80CA0AE
:1025A00002940E9B099908985A4602F0C1F81098B7
:1025B00068E22846FFF78CFC0746B8F1000F00F0F0
:1025C0009A804046FEF71EFE002516900E9BAB42F9
:1025D00040F38D8016980023179383680DF15C08F3
:1025E0005B692A46414698478345064626D12E46D2
:1025F0001698836806F101095B694A464146984787
:10260000834503D14E46F3E7200100100A9B099948
:102610000593C5EB0608012308F10108049701930F
:1026200000932944CDF80CA0029443465A460898DA
:1026300002F07EF80AFB0877354656E0012C099B2C
:1026400004D02B440B934FF001092BE003EB050959
:10265000A0462EB3DDF85CE00898CDF80CA00EF093
:10266000070306930A9B059308239EFBF3F33B4461
:1026700032467044049349460123CDF80880CDF8D2
:102680000480CDF8008002F0A3FD179B16981E442D
:10269000836817965B692A4617A998470646D8E7C4
:1026A000574422E0002EFBD00A9BDDF85CE0059346
:1026B0000D9B08980B99CDF80CA003FB0E733246C6
:1026C0007044049302940123CDF80490CDF8009057
:1026D00002F02EF8179B16981E44836817965B69C4
:1026E0002A46414698470646DCE701356EE716A8BC
:1026F000FEF7B2FDC8E10A9B059301230193009305
:102700000490CDF80CA002940E9B5A463AE028465D
:10271000FEF778FD83461AA8BBF90A3040F810BDD1
:10272000DBF800200B93DBF80C30D2F810800C9310
:10273000BBF90840FEF790FD3268D8F80490507C51
:10274000A14A52F82020166933680A93FFF76EF801
:1027500008280C9B06D910288CBF4FF0040A4FF0B4
:10276000020A01E04FF0010AB04510D103930123A2
:1027700000220BF11800019300930B9B059204902B
:10278000029722460999089801F0D2FF7CE1202F98
:1027900040F0A2800AFB04F0FEF76EFC0D900028CA
:1027A00000F07281FEF72EFD18902846FEF72AFDF4
:1027B000169033694FEACA0200F118054FEA840BFC
:1027C0000C9273B3DDF824804FF00109BAF1020FC7
:1027D00005D0BAF1040F02D0BAF1010F06D1284694
:1027E0003769189953462246B8475D440023189A22
:1027F000059303930C9B0492029322460123CDF888
:102800000490CDF800904146089801F091FF0B9B91
:10281000099A08F1010713449F4200F02C81B84641
:10282000D4E7099F1E460B9B3B444FF001090993D7
:10283000BAF1020FDDF8608016D0BAF1040F24D08F
:10284000BAF1010F30D143462A4652F8040B0E93D9
:102850000A9B0B9298470E9B0B9A03F8010BE11A07
:1028600018EB010FF1D11EE043462A46A04652F86C
:10287000040B0E930A9B0B9298470E9B0B9A23F81E
:10288000020BB8F10108F2D10DE02A46234652F8B6
:10289000040B0E930A9B0B9298470E9B48F8040B6F
:1028A000013B0B9AF3D15D44189B04930C9B02935C
:1028B000059601230396CDF80490CDF800902246AA
:1028C0003946089801F034FF099B07F10108434598
:1028D00000F0D1804746ABE7102F40F0D58004FBD5
:1028E0000AF0FEF7C9FB0D90002800F0CD80FEF73E
:1028F00089FC18902846FEF785FC1690336900F194
:10290000180713B1D8F8143053B94FEACA03099D18
:102910000C930B9B2B4466004FF0000B099383E054
:10292000B0F908008000FEF7A7FB0C9018B1FEF785
:1029300069FC179001E00C9B1793179B002B00F08C
:102940009A8063000A93DDF824B04FEACA030E931D
:10295000BAF1020FDDF8609006D0BAF1040F05D08D
:10296000BAF1010F11D101E0534600E002233846CD
:1029700022461799D8F81450A8475346224649468C
:1029800017983569A8470A9B1F44002305930393B2
:102990000E9B189A029301230492019300932246FE
:1029A0005946089801F0C4FE0B9B099A0BF10109E6
:1029B0001344994501D0CB46CAE717A8FEF74CFC53
:1029C0000C98FEF78DFB56E0A8D00020BAF1040F5A
:1029D00041D0BAF1010F11D143463A4632F8020B09
:1029E0000B920E93C8470A9B98470E9B0B9A03F8CD
:1029F000010BE11A18EB010FF0D13744189B049337
:102A00000C9B0293012301930093CDF814B0CDF8F1
:102A10000CB022462946089801F08AFE099B05F170
:102A20000108434527D04546BAF1020FDDF8608022
:102A3000CCD143463A46A04632F8020B0B920E9395
:102A4000C8470A9B98470E9B0B9A23F8020BB8F1D4
:102A50000108F1D1D1E73A46234632F8020B0B9236
:102A60000E93C8470A9B98470E9B48F8040B013BFE
:102A70000B9AF2D1C1E716A8FEF7EEFB18A8FEF7F5
:102A8000EBFB0D98FEF72CFB1BB0BDE8F08F00BFF1
:102A900010B538B309B30AB3B2F90040B1F9003048
:102AA000A342A8BF23460380B2F90240B1F9023025
:102AB000A342A8BF23464380B2F90440B1F90430D1
:102AC000B2F90620A342B8BF23468380B1F906308D
:102AD0009342B8BF1346C38010BD11460B68036014
:102AE0004B68436010BD68B1038889B20B44038012
:102AF000838819444388818092B213444380C388F9
:102B00001A44C28070470000114A136851688B4212
:102B100070B5044616460F4D09D1AB4206BF3C3393
:102B200093E8070013E9070084E807000AE093E848
:102B3000070084E8070005F13C02934218BF03F147
:102B40000C053560207A003018BF012070BD00BF31
:102B500024010010D80F0010024B09CBC31A5842B1
:102B60005841704724010010F0B5274C236D85B003
:102B700006462BB92046254B40F8503F01F020FD7A
:102B8000234B244A1A6096E80700E36C01AD85E800
:102B900007000BB1284698471F4EDFF880E03768E2
:102BA00073689F4217D0A34214BFA3F10C02724670
:102BB0009DF80C10107A88420DD197420BD0A2429A
:102BC00014BF0C3A154A127A8A4204D1A34214BFA8
:102BD0000C3B124B736095E807007368734583E8FC
:102BE00007000CBF084B0C339F42736004D177453C
:102BF00014BF0C37044F3760A36C0BB128469847BD
:102C000000F0B6FB05B0F0BDD80F00101990000819
:102C1000101100101D59000824010010141000109C
:102C200010B5FEF75DFF0B4A136851688B420BD05D
:102C3000094CA34293E8030014BF0833503B1360D0
:102C4000012403F04FF900E0002400F053FD20467A
:102C500010BD00BF74000020CC0F0010F0B4164D62
:102C6000049E2D68059CB5F90870B842B8BF384677
:102C7000B5F90C70BA42A8BF3A4690421ADCB5F9D1
:102C80000A70B5F90E50B942B8BF3946AB42A8BF79
:102C90002B468B420EDBE5682D6835F0040504D128
:102CA00005940496F0BC02F089B82568002DF7D091
:102CB0002C46F0E7F0BC704720010010B0F902206C
:102CC000B1F906309A4214DCB1F90220B0F90630AD
:102CD0009A420EDCB0F90020B1F904309A4208DCC7
:102CE000B0F90400B1F900308342CCBF00200120CC
:102CF000704700207047000008B5034B014674225E
:102D00001868FDF7F0FA08BD200100102DE9F04F1A
:102D1000A7B0044611911292002800F04782FEF7F6
:102D2000DFFE2046FEF76EFA119AB0F904302390C8
:102D30009A42D0F800B005D1B0F90630129A9A4202
:102D400000F004820020FFF71FF9DBF81830099328
:102D5000964B239D1B681E905A7C13921399099AD7
:102D60008A421CBF9DF824205A74B5F9043005939B
:102D7000B5F906300693059AB5F90830C2EB030A97
:102D80000AF101030793069AB5F90A309B1A0893D2
:102D9000013319932B8A9B0740F1BB816B69059A1C
:102DA0000C93119B9B1A0293069A129B9B1A0393F6
:102DB000029B002B09DCCDF82CA09A44002316932B
:102DC0004FF0FF330F93049307E0029B1693079B8A
:102DD0000F930123049300230B93039B002B0BDC25
:102DE000089C039A234613440893002314934FF03E
:102DF000FF3310930A9306E0039B1493199B1093DF
:102E000001230A93002424A9584605F0B5FE04992D
:102E1000239804F078F90D90002800F07A81049945
:102E2000239804F070F90E90002800F06D81239B28
:102E3000D86880B9079B0A9A1D909B0053431F9343
:102E40000B9A079B03FB042305EB83031593049B59
:102E50009B002093CCE0FEF7D5F9079B0A9A2290BD
:102E60009B0053431F930B9A079B03FB042305EB23
:102E700083031593049B029A9B002093059B1344A4
:102E80002193109B9C4200F08C80149B9C4205DB9C
:102E9000089B9C42CCBF0023012300E000231A932F
:102EA000069B069ADDF854900B9DE3181893039B3C
:102EB0009E18E31A26441D930F9B9D426AD022461A
:102EC00029460C98FEF762FC1B9000285DD0059BFC
:102ED000EB181793219B5F19169B9D4204DB554508
:102EE0001A9BC8BF002300E000231C93BDF990305B
:102EF000BB4213DCBDF99230B3420FDCBDF9943014
:102F0000BB420BDBBDF99630B34207DB239B5A462D
:102F10003146384605F078FD804601E04FF0000864
:102F20001C9B53B1029BE91A12D41D9B002B0FDB93
:102F30001A460C98FEF72AFC50B9BDF99030179A42
:102F4000934205DCBDF99230189A934240F3048114
:102F5000BDF99030BB4216DCBDF99230B34212DCB1
:102F6000BDF99430BB420EDBBDF99630B3420ADBAB
:102F70000D9B1B99229A009352F821205B46314603
:102F8000384606F055FAC9F82080049B1D44209B62
:102F9000994491E70A9B1F9A1C44159B134415936F
:102FA0006FE722A8FEF758F9A9E000BF2001001042
:102FB000149BA34220DC089BA342B4BF002301233F
:102FC0001A93069B069ADDF854900B9D23441893A0
:102FD000039B9E18059B029A1344264421930F9B42
:102FE000AB420BD10A9B1F9A1C44159B13441593AB
:102FF000109BA342DCD182E00023E1E72246294670
:103000000C98FEF7C3FB03461B0E1B9072D0059B6A
:10301000EB181793219B03EB0508169BAB4204DCCE
:10302000AA451A9BB8BF002300E000231C93BDF9FA
:10303000903043451DDCBDF99230B34219DCBDF937
:103040009430434515DBBDF99630B34211DB239B29
:103050005A463146404605F00FFD099A554B53F844
:1030600022301B6907465B6840F07F4098471D90FF
:1030700000E000271C9B53B1029BE91A11D4039B6B
:10308000E21A0ED40C98FEF781FB030E09D1BDF9AC
:103090009030179A934204DCBDF99230189A93420B
:1030A00070DDBDF99030434522DCBDF99230B3426A
:1030B0001EDCBDF9943043451ADBBDF99630B342AE
:1030C00016DB1D9B1B9843F07F413B4BFF221B6887
:1030D0009847099A374B53F822301B691B68984769
:1030E0000D9B009302465B463146404606F0A0F930
:1030F000C9F82070049B1D44209B99446FE7239BD3
:103100000E99186806F0D6F8239B0D99186806F0FA
:10311000D1F8239BBDF844209A80BDF84820DA807E
:103120000799119A1E980A44013A1A81129A19991C
:10313000013A0A445A81099B139A93421FBF1F4BBD
:103140009DF84C201B685A74FEF71EFF23A8FEF75B
:1031500083F800F0CFFA29E0BDF99430179A934232
:10316000FFF6F6AEBDF99630189A9342FFF6F0AE30
:103170000E9B0093D9F82020189917985B4606F00B
:1031800057F9E5E6BDF99430179A934289DBBDF90A
:103190009630189A934284DB0E9B0093D9F8202036
:1031A000189917985B4606F043F97AE727B0BDE80F
:1031B000F08F00BFA8D000203401001020010010C3
:1031C00008B5034B74221968FDF78DF808BD00BFE0
:1031D0002001001008B5FEF783FC01F0C1FE01F0EC
:1031E000E5FF02F037F9BDE8084000F083BA0000BF
:1031F00070B50B4D2B6804465E7CFEF771FC012C0C
:1032000009D82046FEF78CF928B12B685C74FFF7CB
:10321000E1FF044B1C6000F06DFA304670BD00BF4A
:1032200020010010E010001010B50446FEF758FC15
:10323000204601F0B5FEBDE8104000F05BBA10B5C5
:103240000446FEF74DFC204601F0E2FEBDE81040CA
:1032500000F050BA014B5860704700BF10010010D9
:1032600010B50446FEF73CFC204601F0E9FE04469A
:1032700000F040FA204610BD38B50446FEF730FC99
:10328000044B1B68DD6904B1DC6100F033FA2846A9
:1032900038BD00BF2001001070B504460D4616462B
:1032A000FEF71EFC32462946204601F037FF044651
:1032B00000F020FA204670BD38B50546FEF710FC38
:1032C000034B1B689C7E9D7600F014FA204638BDA7
:1032D0002001001070B504460D46FEF701FC094BB5
:1032E0001C80094B1D80094B1B685A7C084B53F806
:1032F0002200C2682146166A2A46B047BDE87040DF
:1033000000F0F8B9BE100010C0100010200100102D
:10331000A8D0002038B50546FEF7E2FB034B1B683A
:103320001C7E1D7600F0E6F9204638BD2001001015
:1033300038B50546FEF7D4FB044B1B68B3F92C40A7
:103340009D8500F0D7F9204638BD00BF2001001050
:1033500038B50546FEF7C4FB044B1B68B3F92A4099
:103360005D8500F0C7F9204638BD00BF2001001080
:10337000024B1B6803B11847704700BF2CCF0020D9
:10338000024B1A6802B91860FFF7F2BF780F0010FD
:1033900073B5044678B3194EFEF7A2FB3568AC420C
:1033A0000CD12046FDF72EFF02AB826843F8040DD6
:1033B0003260184615E06846FDF74EFF9DB128467D
:1033C000FDF720FF85680090AC42F4D12046FDF760
:1033D00019FF009B826801909A6001A8FDF73CFFED
:1033E0006846FDF739FF204606F0E6F82046FDF76F
:1033F00077FE00F07FF902B070BD00BF84100010AE
:1034000037B50D46044690B1FEF76AFB2046FDF73E
:10341000F9FE02AB828943F8040D2A42184614BF14
:1034200001240024FDF718FF00F064F900E00124F6
:10343000204603B030BD0000002337B50360094BC0
:103440001C68054654B12046FDF7DCFE02AB02695C
:1034500043F8040D2A601846FDF7FEFE204603B02F
:1034600030BD00BF84100010002373B50B600E4602
:10347000044690B1FDF7C6FE02AD846845F8040D20
:1034800044B12846FDF7E8FE2046FDF7BBFE036980
:10349000019033602846FDF7DFFE204602B070BD84
:1034A000F8B5084E0468336805461B6820469847FF
:1034B000336807465B6820469847204428603846B2
:1034C000F8BD00BFB8D00020F8B5074F06460D463E
:1034D00000243DB13B6830465B689847013D064497
:1034E0000444F6E72046F8BDB8D000202DE9F843A3
:1034F000089C0546884699461444AB68561C5F688C
:1035000041464B462846B847B4423246F5D1BDE85D
:10351000F883F8B5B0F90040091BB0F90440A142A6
:1035200032DAB0F902500B44521B0569CE10013B50
:1035300005FB0265DF43143501F0070407F00707B8
:10354000FF2141FA04F401FA07F7D6EBE30600EB9A
:103550000502E4B2FFB210F805E004D13C404EEAA7
:1035600004044455F8BD44EA0E044455751E002D6C
:1035700002F1010305DD18462A46FCF7DEFE03468C
:103580002B441C783C431C70F8BDB0F90030C91ABC
:10359000B0F90230D21A03695A43143202EBE10245
:1035A000802301F0070143FA01F1835C1943815440
:1035B0007047B0F90630026900215A431430FCF715
:1035C000BCBE00002DE9F74302F10F042411640092
:1035D000814603FB04F01430884617461E46FDF76B
:1035E00059FD0546B8B1FEF77BFA2846FDF70AFEFD
:1035F00003460B4A9A6002A8012240F8043D9F80CE
:10360000A3F80090A3F80280DE809A811C61FDF788
:1036100023FE00F06FF8284603B0BDE8F08300BF3A
:103620009CAF0308B0F906309342F0B544DD0C6856
:10363000B0F90460B4423FDA0769E3101D4607FBA6
:103640000232731EC5EBE30302F115051432054483
:10365000825C04F007008240D2B23AB973B30834F6
:1036600015F8012B013B24F00704F6E7170603D4F5
:103670005200D2B20134F9E7FF2A06D0204656069E
:1036800004D55200D2B20130F9E7E01D00F0070284
:10369000072A0DD1013B0BD415F8012BFF2A01D1CC
:1036A0000830F7E7130603D55200D2B20130F9E72C
:1036B000001B0C600130F0BD0020F0BD1846F0BDCD
:1036C00037B50546FEF70CFA2846FDF79BFD02AB21
:1036D000848943F8040D013C24B284811846FDF727
:1036E000BBFD14B92846FDF7FBFC00F003F803B05E
:1036F00030BD0000034A5368013B53600BB907F02B
:10370000C1BC704718CF00201FB508B9024600E0C1
:1037100003AA002302A901A800F078FD05B05DF816
:1037200004FB000010B5074B1C7818B101221A7079
:10373000002002E018704FF07F4000F0E3FF2046C9
:1037400010BD00BFA2D00020082A10B50EDD102A3F
:103750000ADC034600EB410150F8042B23F8022B4E
:103760008B42F9D1012010BD002010BD022A28D1C2
:103770000446036801294FEA8313DBB21ED0426876
:10378000120102F03002022943EA020301D108309B
:1037900015E08268920002F00C02032943EA02035A
:1037A00001D10C300BE0C26802F00302134304396C
:1037B000103004F8013B0029DBD1D3E704300021AD
:1037C000F7E7042A15D104460129036818BF4268A7
:1037D0004FEA0313DBB21BBF02F00F0213430021B9
:1037E00002390CBF0430083004F8013B0029EBD14A
:1037F000B8E7012A03464ED11A6801294FEAC212DE
:10380000D2B245D05C68A40104F04004022942EA27
:10381000040201D108333CE09C68640104F02004F8
:10382000032942EA040201D10C3332E0DC682401AE
:1038300004F01004042942EA040201D1103328E004
:103840001C69E40004F00804052942EA040201D1DD
:1038500014331EE05C69A40004F00404062942EA63
:10386000040201D1183314E09C696400073904F0A4
:10387000020442EA04021BBFDC6904F001041C33A9
:10388000224318BF203300F8012B0029B4D169E787
:1038900004330021F7E7014450F8042B03F8012B0F
:1038A0009942F9D15EE713B50024009400F04CF87A
:1038B00002B010BDF0B51F4DEB6F85B0002B37D1B6
:1038C0000123EB671C4B6A4603F108076E46186834
:1038D0005968144603C40833BB422246F7D118681E
:1038E00099889B79A3712060A180144C334613F80A
:1038F000012B04F8012B1A78002AF8D1FEF728F8DA
:1039000010F8013B224604F8013B0378002BF7D165
:10391000537007F073FBFDF71FFB0AF01DFF084B08
:103920000848C5F8943005B0BDE8F04000F048BE46
:1039300005B0F0BDDC0E001060A203085C0F0010A3
:10394000D58F0008700F00102DE9F843089FD3F8B9
:103950000080002F08BF0746082A04460D4605DDF3
:10396000102A40F3AD800020BDE8F883013A072A11
:1039700000F29D80DFE802F0115B9B7F9B9B9B899F
:10398000E069C04704F120093043C6B2083D4C4607
:1039900007F8016B002D00F08A802068C047012DD8
:1039A0004FEAC010C6B200F085806068C047022DA3
:1039B00046EA8010C6B201D108347CE0A068C04756
:1039C000032D46EA4010C6B201D10C3473E0E06822
:1039D000C047042D46EA0010C6B201D110346AE097
:1039E0002069C047052D46EAC000C6B201D1143493
:1039F00061E06069C047062D46EA8000C6B201D189
:103A0000183458E0A069C047072D46EA4000C6B206
:103A1000B6D11C344FE0E068C04704F110093043D0
:103A2000C6B2043D4C4607F8016B002D3FD020681C
:103A3000C047012D4FEA8010C6B23ED06068C04733
:103A4000022D46EA0010C6B201D1083436E0A06863
:103A5000C047032D46EA8000C6B2DCD10C342DE00D
:103A60006068C04704F108093043C6B2023D4C46C5
:103A700007F8016BDDB12068C047012D4FEA001047
:103A8000C6B2EDD104340025F2E71E692EB1012340
:103A90002A4639462046B04709E07E1E54F8040BFA
:103AA000C04706F8010FF3432B44DF42F6D1012053
:103AB000BDE8F883043400256AE704340025B2E742
:103AC0001E691EB102232A463946E4E7023F54F834
:103AD000040BC047013D27F8020FF8D1E7E70000CB
:103AE000274B1B68F7B505460E4663B1002002F070
:103AF000F1FC002841D06A463146284603F00AFC12
:103B000002F0FEFBF5E7106851681E4C6B4603C3DC
:103B10002268BDF80030B2F84C70B2F85000BDF821
:103B20000210BDF804203B44ADF80030BDF806306B
:103B3000014403443A446846ADF80210ADF804204D
:103B4000ADF8063002F0C6FC236840B9D96C5A8C37
:103B5000521A5A84196D9A8C521A9A840DE0BDF843
:103B600000205A84BDF802209A8431466A462846CD
:103B700003F0D0FB02F0C4FBE6E703B0F0BD00BFEA
:103B8000B4D00020200100102DE9F04F93B00024A4
:103B90001D9F0A900B9192461E463C6011AB224637
:103BA00010A90FA800F032FB0546002840F0BD80A8
:103BB000119B604CB342A8BF334609932368587CDD
:103BC0005D4B53F8203007931B690C93FDF72EFED5
:103BD00023680890587CFDF7EDFE584B03909842FF
:103BE00005D0574BC31A18BF0123069300E0069572
:103BF0000026DDF824B03546534653F8040B0D93E8
:103C00001C9B9847030EFF2B049005937BD0002D3F
:103C100039D10A9B099A03EB0609464B1B68B3F995
:103C200008304B45C4BFC9EB030599460A9B03EB1B
:103C30000208079B0193AC190F9BA4002344009337
:103C40000B9B4846194608F1FF32FFF707F8089B1F
:103C50000F98172B07DC0C9B089AC5EB0B0120442F
:103C600000F016FA01E0069B0BB901250BE00444B5
:103C7000C9EB08082068039B9847B8F1010844F88D
:103C8000040BF7D1F1E72F4BD3F81C80B400B8F147
:103C9000000F23D0109D0F992A19214410925B46E2
:103CA0000F915046C047109A0F9C00235AF82310DA
:103CB00054F8230011F07F4F02D142F8230004E0B2
:103CC00010F07F4F08BF42F8231001339B45EDD120
:103CD0003B68109543F001033B6024E005999DF893
:103CE00014200F9BDDF8408019B91B5948F80430A7
:103CF00011E01959049B43F07F40134B1B68984710
:103D000048F8040003E0109B049A43F826203B681F
:103D100043F001033B60BBF1010B06F10106DDF846
:103D200034A07FF469AF109800E0204613B0BDE8DE
:103D3000F08F00BF20010010A8D00020F74C000831
:103D4000F14C000834100010340100102DE9F04F40
:103D500095B0A64D07929B46219A209B0C9043EA72
:103D600002082B680891587C1E9CFDF71BFE2B68EF
:103D70000990587CFDF75AFD1828064606D00828F9
:103D800007DD1128B4BF0227042703E020260427FB
:103D900000E00127B8F1010F0AD0079B23EAE37383
:103DA00003EB43030F9300236FF070480A9318E16D
:103DB0002B68587CFDF7FEFD00230D9013AA1946D1
:103DC000184600F023FA002840F05F81079BCDF8E9
:103DD000288003EB43030B938146054694F800A02B
:103DE000BAF1FF0F11D1079B0135AB4208D109F1A0
:103DF0000109BBF1000F00F048810BF1FF3B0025EA
:103E000014F8033FFF2BEED0D4E0BAF1000F40F0DE
:103E1000BB800C9B229AEB180E93089B4B440F938C
:103E20000D9B9342139B15D198466B1C6078A1782B
:103E300001EB0021079828F8021B9842A3EB05022A
:103E400004F1030419466FD0207801330028EDD027
:103E50000D4676E0022F29D0042F49D0012F6FD1D3
:103E6000079A9846C5EB020A3E46E91AA37860789D
:103E7000109103EB002080B2229B9847099B984742
:103E8000109908F8010B5645324604F1030408EB7B
:103E9000010505D109F101090BF1FF3B002503E004
:103EA00023780136002BE1D008264AE0079A521BFE
:103EB000984610922B464FF0010AA2786078119331
:103EC00002EB0020229B80B29847099B98471099EB
:103ED000119B28F8020B52468A4504F1030402EBB9
:103EE000030521D021780AF1010A0029E5D028E054
:103EF000079A521B984610922B464FF0010AA2785F
:103F00006078119302EB0020229B80B29847099BB6
:103F100098471099119B48F8040B52468A4504F1C2
:103F2000030402EB030505D109F101090BF1FF3B85
:103F3000002506E021780AF1010A0029DFD000E01F
:103F4000524600230593139B04930B9B03930A9BF8
:103F500001930093029601230F990E9800F0E8FB5D
:103F600028E009F10109BBF1000F00F08E800BF190
:103F7000FF3B002514F803AF0AF1FF33DBB2FD2B42
:103F800018D8BBF1000F15DDA378607803EB002093
:103F900080B2229B9847089903460C986FEA0A0260
:103FA0002818D2B2494400F01FFB079B0135AB42F1
:103FB000E0D1D6E7BBF1000F7FF410AF65E0219AA6
:103FC000089B13440D93013B0B93084B0B991B6803
:103FD000B3F90A208A420BDD0A9B01330A930D9B39
:103FE00008930A9B5B45EADB4FE000BF200100100D
:103FF000B3F90E30089A9A42EEDC0C9B209A9E1878
:104000000023E71C0993209B079AF31A0E93099B40
:10401000934237DA17F8013C17F8020C17F8035CE3
:1040200003EB002080B2229B98478045824601D056
:1040300000F0EEFFFF2D1DD0B5B1ED43DDF820807F
:10404000EDB2DDF838904E4508DD484653462A4625
:10405000414600F0C9FA09F10109F4E70B9B08F1A8
:1040600001084345EDDA05E00B9B08990E98721E96
:1040700000F0C8FC099B01330993209B03371E44C1
:10408000D046C0E70F9B1C44A6E715B0BDE8F08FF3
:104090002DE9F0470C1E054640F3B680082A5E68FD
:1040A00004DD102A40F39A80BDE8F087013A072A20
:1040B00000F2AA80DFE802F0042DA859A8A8A8857C
:1040C000671EFB1004F1804808F1FF3803F1FF3947
:1040D00005EB880807F00707A94415F803A0802519
:1040E0003D41EDB2C7F1070305EA0A001841B047A8
:1040F00048F8040937B999F800A0012509F1FF39FA
:10410000072702E06D00013FEDB2013CEAD1BDE8B6
:10411000F087671EBB1004F1804803F1FF3908F1F6
:10412000FF3807F0030715F803A005EB8808A9443A
:10413000C0237D0043FA05F5EDB27B00C3F1060311
:1041400005EA0A001841B04748F8040937B90325C1
:1041500099F800A02F4609F1FF3902E0AD00013FB8
:10416000EDB2013CE9D1BDE8F087671E7B1004F198
:10417000804803F1FF3908F1FF3807F0010715F80F
:1041800003A005EB8808A944F023BD0043FA05F518
:10419000EDB2BB00C3F1040305EA0A001841B047C1
:1041A00048F8040937B999F800A00F2509F1FF393B
:1041B000012702E02D01EDB20027013CE9D1BDE865
:1041C000F08705EB84072544641B15F8010DB04703
:1041D000E54247F8040DF8D1BDE8F0875F6937B1D3
:1041E00022462946BC460223BDE8F047604705EB5E
:1041F000440705EB840537F8020DB047013C45F84C
:10420000040DF8D1BDE8F087BDE8F0872DE9F8434B
:10421000294C1D4623690646884617463BB90123AB
:1042200020462361254B40F8143F00F0C9F9E368AC
:10423000DFF8849043B9224B1B68C9F80C301BB9D6
:1042400000F08EFCC9F80C000DB1E3682B607EB164
:104250002368194D43B9E8688000FCF763FF2860C4
:10426000B0FA80F56D0900E000252368336000E0B6
:104270003546B8F1000F0DD063680F4E3BB9F068BA
:104280008000FCF74FFF0028706008BF01256368BD
:10429000C8F8003067B1A368074E3BB9F0688000EA
:1042A000FCF740FF0028B06008BF0125A3683B6011
:1042B0002846BDE8F88300BF341000104590000880
:1042C0009CD0002037B502AB144A43F8081D01907A
:1042D0001268194690470190E8B1114B1B68DB69E1
:1042E0005C690CB124680CB9254602E00099A0472E
:1042F00011E0009B013B002B009307DB01A8FFF7B7
:10430000CFF80446FDF79CFA0544F2E7204600F09A
:1043100025F82844FFE703B030BD00BF7C00002033
:104320002001001037B50D460190044688B10A4BB4
:104330001B68DB695C6954B1646844B1A04709E05B
:1043400001A8FFF7ADF820B10A2802D00134AC4231
:10435000F6DB204603B030BD2001001013B502A9E2
:10436000002441F8044DFDF77DFA019B9842B4BF4B
:10437000181A204602B010BDB1F90030B0F9002083
:104380009A42B8BF0380B0F90220B1F902309A42D4
:10439000B8BF4380B0F90420B1F904309A42C8BFD5
:1043A0008380B0F90620B1F906309A42C8BFC380B5
:1043B000704770B5B1F90030B2F90050B1F904405E
:1043C0009D42B8BF1D460646B1F902300580B2F9DC
:1043D00002008342B8BF0346B2F9040073808442EE
:1043E000A8BF0446B2F90600B1F90620B4808242A3
:1043F000A8BF0246A542F28004DC9342CCBF002055
:10440000012070BD002070BD024B1B680146587C26
:1044100000F002B8200100100128F7B506460C464E
:1044200062DC334D6B6803B19847012C04D0022C39
:1044300020D0002C58D133E005EB8605AF68AFB92A
:104440003046FDF76DF8019000284DD0C3680D216E
:104450005B6A01A898470346002845D02146019889
:104460009847AB680133AB6038463EE0781CA860E3
:1044700020463AE03046FDF753F80190002833D04B
:10448000C3680D215B6A01A89847044600282BD019
:104490002B6803B1984702210198A047002024E02F
:1044A000B4002B199B68012B01D0012015E0304688
:1044B000FDF736F801900028F7D0C3680D215B6A3C
:1044C00001A8984706460028EFD0094B1B6803B1A6
:1044D000984700210198B04700202544AB68002B85
:1044E00018BF013BAB6000E0012003B0F0BD00BF8E
:1044F000BCCF00200B0E4FEA106308BF20F07F41B5
:1045000030B55A43C0F30724FF23B2FBF3F29D1AE0
:1045100044F080730C0A04F0FF146C4300F0FF10A9
:1045200002FB0344424301F0FF1305FB0321090A88
:1045300004F0FF2401F0FF10204330BD2DE9F04FBF
:1045400087B006469DF850300493129B9D00109B47
:1045500005EB8303039300230193184B0F4690460A
:10456000139A0199914226D0DDF848900297C246ED
:10457000B3465BF8040B029C04990593020E4A4370
:10458000FF21B2FBF1F254F8041B0294D2B21C6872
:1045900040F07F40A047B9F1010940F07F404AF860
:1045A000040B059BE5D1039A1744019A01322E446E
:1045B000A8440192D4E707B0BDE8F08F34010010A1
:1045C00080B483B000AF7860064B1A687B685A608D
:1045D000044A7B68136000BF0C37BD465DF8047B5E
:1045E000704700BF500F00102DE9F047184F3C688E
:1045F0009846B4F90A308B4205460E46914624DCB3
:10460000B4F90E30994220DCB4F9083083421CDC46
:10461000B4F90C30984218DC00F051FA0D4B4A46C0
:104620001C6801464046A04700F074F83B685A7C7D
:10463000094B53F82240E3689F69324603462946F6
:104640002046BC46BDE8F0476047BDE8F08700BFA4
:104650002001001034010010A8D0002070B584079C
:1046600042BF02F1FF3201800230540824D0032CF3
:10467000234601EB014502D800EB830317E000F16C
:1046800010032646043E032E43F8105C43F80C5CEE
:1046900043F8085C43F8045C03F11003F2DC043CCB
:1046A000A3085E1C00EB0610A4EB8303E4E798422A
:1046B00002D040F8045BFAE7D30748BF018070BD21
:1046C0000B0E10B50D4C10D1030EFF2B08D16368F3
:1046D00020F07F40034302EB021243EA026010BD68
:1046E0001BB9626841EA020010BD054B02EB0212E1
:1046F0001B68D2B298476168084310BD880000204B
:1047000034010010024B5A6858601046704700BFD1
:1047100088000020044B1B685A7C044B53F822305D
:104720001B691B68184700BF20010010A8D000209B
:104730002DE9F04F8FB0DFF818E2189C0294DEF8F4
:1047400000E0199C08941D9E1B9C03940546009153
:10475000904601931A9F1C9C0496BEF1000F02D054
:10476000DEF800407AE0029B089A1343012B7AD1CD
:10477000754B01991868009BB0F90A20D31A002BD9
:1047800007DDC91A002940F3DB80039E06FB0344C2
:1047900000E0009A9DE848001E44B0F90E30013E4A
:1047A000F61A002E03DD891B002940F3C98005EBB2
:1047B0000803B0F90C60013B9B1BB0F90860002BAB
:1047C000C8BFC3EB0808B54231DA731B082FC3EB2F
:1047D000080827D00DDC022F14D0042F1AD0012F87
:1047E00026D123F0070604EBE304354403F0070366
:1047F0001EE0182F18D0202F16D0102F18D104EB40
:10480000430413E023F0030604EBA304354403F050
:1048100003030DE023F0010604EB6304354403F0C9
:10482000010305E01C4401E004EB8304354600234A
:10483000B8F1000F40F38480467C444850F82600CD
:10484000049ED0F80CE01C93039B1A9318911D96BC
:104850001B941997DEF8044043462946A4460FB03E
:10486000BDE8F04F6047C7F108030B93029BDFF8E8
:10487000D8A0CDF818E0013BF3460D93069B019AB2
:1048800093425DDA009A089B13440993013B0A9313
:10489000DAF800300A99B3F90A208A4248DCB3F901
:1048A0000E30009A9A4243DC4FF0000907942E46DE
:1048B000CDF81490059B43453ADAB9F1000F06D1C3
:1048C000079B93F800B0013307934FF008090B9B47
:1048D0004BFA03F30BFA07F213F0FF015FFA82FBC6
:1048E000C7EB090904D1DAF80020127C920717D42B
:1048F000DAF80020D26B10680C90049810B150F8D0
:10490000213000E0DBB213600D9A0A9B009932441B
:10491000304600F077F8DAF800300C9ADB6B1A605A
:10492000059B029A01330593334613441E46C1E7A3
:10493000069B01330693039B1C44099B00939DE750
:104940000FB0BDE8F08F00BF20010010A8D00020FC
:10495000B4D00020114B30B41C68B4F90A308B423B
:104960000D4619DCB4F90E30994215DCB4F9081083
:10497000B4F90C308142B8BF01469342A8BF134638
:10498000994209DC607C064A52F82000C2689468AB
:104990002A46A44630BC604730BC70472001001056
:1049A000A8D00020154B1B680A46B3F90A109142A3
:1049B00030B4044620DCB3F90E108A421CDCB3F993
:1049C0000810814218DCB3F90C10884214DC197C01
:1049D000587C11F0010F0A4951F8200004D0C36837
:1049E0002146DB6930BC1847C168DB6B8D691B68E9
:1049F0002146AC4630BC604730BC704720010010F7
:104A0000A8D0002073B5134C2468B4F90850B4F949
:104A10000C608542B8BF05469642A8BF1646AE4216
:104A200015DBB4F90A208A42B8BF0A46B4F90E1061
:104A30008B42A8BF0B469A4209DC607C064951F8BC
:104A40002000C16800930C6933462946A04702B094
:104A500070BD00BF20010010A8D00020082104F084
:104A60006BB80000024B1B68587C00F003B800BF15
:104A700020010010092104F05FB810B50020FCF7F8
:104A80004FFD041C4FF0010018BF0124FCF748FD46
:104A900000B10134204610BD024B1B68587C00F069
:104AA00003B800BF2001001010B5FCF739FD28B194
:104AB000C3680221DB6ABDE81040184710BD08B585
:104AC00000F004F8BDE8084000F0B0B8F7B5144FA6
:104AD000144E3B685B7C044656F82300C3680D46C1
:104AE0001B6B69469847BDF90030A34215DCBDF940
:104AF00004309C4211DCBDF90230AB420DDCBDF943
:104B000006309D4209DC3B685B7C56F82300C36895
:104B10002A465B692146984700E0002003B0F0BDBB
:104B200020010010A8D0002037B50C461546FCF730
:104B3000F7FC019008B901200DE0C36804215B6A0D
:104B40000DEB0100984703460028F4D001982A464F
:104B500021469847002003B030BD032103F0ECBF8D
:104B6000032004F086B8042103F0E6BF024B1B6863
:104B7000587C00F009B800BF20010010014B1868F4
:104B8000704700BF10CF0020012103F0D5BF0120E6
:104B900004F06FB8024B1B68587C00F009B800BFE6
:104BA00020010010014B5868704700BF10CF002053
:104BB000022103F0C1BF022004F05BB8AFF3008014
:104BC0002DE9F843044618B387681FB3144D2868CD
:104BD00020B32268B2F5807F1FDC124B1B689A421B
:104BE000A8BF1A4690460026464509DA57F826001F
:104BF000D5F80090FFF78EFD49F826000136F3E75F
:104C0000094B1B680BB1204698472868BDE8F8831C
:104C1000BDE8F8833846BDE8F8830020BDE8F88396
:104C2000D4100010A000002034CF0020044B1B68DB
:104C30005A7C044B53F822301B695B68184700BF4D
:104C400020010010A8D00020084AC0F3842300F0FF
:104C50001F01C0F34410D35C515C105C03EB0143B3
:104C600003EB002040F07F40704700BFBCAD03085D
:104C700000F01F01074AC0F3C423C0F34510D35C02
:104C8000525C03EB0243044A105C03EB002040F04B
:104C90007F407047BCAD03087CAD0308084AC0F3F1
:104CA0004413D15CC0F3842300F01F00D35C105C7C
:104CB0001B0403EB0123184440F07F40704700BF02
:104CC000BCAD0308C0F34513074AD15C074AC0F3E3
:104CD000C42300F01F00D35C105C1B0403EB012312
:104CE000184440F07F4070477CAD0308BCAD03081A
:104CF00040F07F407047704738B50A4D2C6864B962
:104D0000094B18688000FCF70DFA286038B1074895
:104D1000074B40F8043FFFF753FC002038BD01204B
:104D200038BD00BFD4100010A000002034CF0020F8
:104D30006D9000082DE9F74FFFF79FFE1C4EDFF83E
:104D400078A080460024B14644452DDA2046FCF781
:104D5000E7FB38B33368204693F811B05C74FFF773
:104D60007DFE082804DDD9F8003083F811B019E081
:104D70005AF824301A690F4B9A42F4D02046FFF7B4
:104D800079FE002503469D42EDDAEFB238460193E5
:104D9000FFF74CFF39460246204600F057F901352F
:104DA000019BF0E70134CFE703B0BDE8F08F00BF0F
:104DB0002001001010AF0308A8D000202DE9F04F0B
:104DC00087B090460393119B109CDA68536AD2F81F
:104DD000149007460E466BB9604B1B68587CFCF775
:104DE00025FD082815DD1128B4BF4FF0020A4FF049
:104DF000040A10E0012111A8984705460028EBD0CD
:104E0000039B009301944346324639461198A847C4
:104E1000A0E04FF0010A431E00250493039B9E422D
:104E200000F39880BAF1020F09D0BAF1040F04D050
:104E3000BAF1010F40F08C8003E0BB467DE0BB4639
:104E400070E0049B072B00F28380DFE803F00E0A7A
:104E5000070704040404C4EB070B59E0BB460F2307
:104E60003BE0BB464FF63F7319E0BB46C3456FDCE2
:104E7000324659461198C84722784FF67F732B4126
:104E80001A40C5F1070398400135104325F0070388
:104E900020700BF1010B04EBE5041D41E6E7C3456F
:104EA00056DC5946324611980593C847059B94F83D
:104EB00000E06A0043FA02F1C2F106020EEA0101C3
:104EC0009040013541EA0002227025F0030204EB14
:104ED000A5040BF1010B1541E1E7C34538DC594648
:104EE000324611980593C847059B94F800E0AA0044
:104EF00003FA02F1C2F104020EEA0101904041EA14
:104F0000000222700BF1010B2C4485F00105E4E74F
:104F100004EB0B0188451BDB32461198C84704F8A7
:104F2000010BF5E7C34513DC594632461198C847D3
:104F30000BF1010B24F8020BF4E7C34508DC5946DA
:104F400032461198C8470BF1010B44F8040BF4E703
:104F5000013663E707B0BDE8F08F00BF2001001005
:104F600010B50D4B1A68517C0C4A52F821001C46B2
:104F700040B1C36813B11B68042B01D00068F7E788
:104F8000FCF7B4FA236800221A6603F108025A619A
:104F9000BDE8104000F02EB820010010A8D000207D
:104FA000014B1B685B6818473C010010044B1B68F1
:104FB0001A7C52074CBFDB6B9B6B1860704700BFBD
:104FC0002001001037B5094C23685A7C084B054670
:104FD00053F82200C36869461B6B984720686A46ED
:104FE00029460830FFF7E5F903B030BD2001001075
:104FF000A8D00020044B1968044B4A7C53F82200C7
:10500000C36808311B6B184720010010A8D000208E
:10501000014B1B681B6818473C010010044B1B68C0
:105020001A7C52074CBF9B6BDB6B1860704700BF4C
:1050300020010010014B83E80300704710CF0020CF
:10504000014B1B689B6818473C01001037B50C46A4
:105050001546FCF765FA019008B901200CE0C36819
:1050600010215B6A01A8984703460028F5D00198F3
:105070002A4621469847002003B030BD2DE9F0476D
:1050800004460D461646002A40D0DFF88C80D8F83A
:105090000030B3F90A20914238DBB3F90E20914277
:1050A00034DCB3F90820904230DBB3F90C20904295
:1050B0002CDC0E2E164FDA6B09D95B7C57F82300D7
:1050C000C3689E691368B4460A4621461BE010680F
:1050D000FFF7ACFD294681462046FFF7F0FC0D4B5B
:1050E000324601461B6848469847FFF713FBD8F83D
:1050F00000305B7C57F82360F3689F692A460346BB
:1051000021463046BC46BDE8F0476047BDE8F08721
:10511000A8D00020880000202001001037B50C46E0
:105120001546FCF7FDF9019008B901200CE0C368B1
:1051300003215B6A01A8984703460028F5D001982F
:105140002A4621469847002003B030BD37B50C46AB
:105150001546FCF7E5F9019008B901200CE0C36899
:105160000B215B6A01A8984703460028F5D00198F7
:105170002A4621469847002003B030BD37B50C467B
:105180001546FCF7CDF9019008B901200CE0C36881
:105190000A215B6A01A8984703460028F5D00198C8
:1051A0002A4621469847002003B030BD10B5074C71
:1051B0002368186BFFF7AEFAFFF730FF2368586BD0
:1051C000FFF7A8FABDE81040FFF7F0BE200100107D
:1051D0002DE9F04F8FB0DFF8CCE1189D0295DEF895
:1051E00000E0199D08951B9D039507900C461746F6
:1051F0000193DDF868A01C9EDDF874B01E9DBEF121
:10520000000F02D0DEF8004054E0029B089A1343DE
:10521000012B54D1614B1868B0F90A20531A002BA6
:105220000ADD0199C3EB010EBEF1000F40F3B2801D
:10523000039901FB036602E0DDF804E00A46019BE6
:105240001C44B0F90E30013CE41A002C05DDC4EB1F
:105250000E0EBEF1000F40F39D80079BB0F90C10BD
:105260003B44013B5B1A002BC8BFFF1A079B591B2D
:10527000B0F90830994209DA5B1A1D44FF1A23F08D
:10528000070306EBE506194405F00705002F40F378
:105290008180407C424B039C53F82000C368CDF8CA
:1052A00074B01C951B961A94CDF864A0CDF860E0FC
:1052B0005C683B46A4460FB0BDE8F04F6047CAF1BA
:1052C00008030B93029BDFF8D490CDF814E0013B68
:1052D00075460D93059B019A93425BDA089BE31890
:1052E0000993013B0A93D9F800300A99B3F90A20CF
:1052F0008A4248DCB3F90E309C4244DC079B069698
:105300004FF000080093CDF81080049BBB423ADABE
:10531000B8F1000F05D1069B1D78013306934FF0BD
:1053200008080B9B45FA03F313F0FF0105FA0AF591
:10533000EDB2CAEB080804D1D9F80020127C92071C
:1053400019D4D9F80020D26B10680C90BBF1000F73
:1053500002D05BF8213000E0DBB2136000990D9AB7
:105360000A9B00980A442146FFF74CFBD9F800300D
:105370000C9ADB6B1A60049B029A01330493009B26
:1053800013440093C1E7059B099C01330593039BDC
:105390001E449FE70FB0BDE8F08F00BF2001001052
:1053A000A8D00020B4D0002000283BD030F001036A
:1053B00029D030F0030328D030F0070327D030F095
:1053C0000F0326D030F01F0325D030F0FF0324D088
:1053D00020F4FF7323F001030BB320F47F6323F069
:1053E0000F03E3B120F4FF4323F07F03BBB1030CB1
:1053F0001B04A3B1830C9B049BB110F07F4F0CBF27
:105400001820202070470120704702207047032099
:10541000704704207047052070470820704710200F
:1054200070471220704708B5FFF7BEFF01280FD064
:10543000831E062B09D9A0F10903072B07D91138C0
:105440000F288CBF0020202008BD082008BD102098
:1054500008BD0000024B1B68012283F854207047EE
:10546000200100102DE9F043044687B0FCF738FB1B
:10547000002C3AD02046FBF7C5FE0346019003C836
:1054800004AD85E8030001A81E6AD3F82890FBF755
:10549000E3FE204600F0F6FF074630B3204600F05A
:1054A00022FA19F0020F804604D0014632462846FF
:1054B00001F062F92046FBF7A5FE01904046FBF79C
:1054C000A1FE03903846FBF79DFE039B019AD96924
:1054D00006620290116201A8DC61FBF7BDFE03A821
:1054E000FBF7BAFE02A8FBF7B7FEFEF703F907B019
:1054F000BDE8F0832DE9F74FDDF830A0984605466A
:105500000E461746FCF7ECFA4D4BD3F80090BAF173
:10551000000F28D14B4B1B8853B34B4B1B685A7C55
:105520004A4B53F822305A1C012A21D99A46504638
:10553000FBF768FEB0F90010B0F9022001900D44AD
:1055400016441FB9B0F904305F1A0137B8F1000FE3
:1055500005D1B0F90630C2EB030808F1010801A833
:10556000FBF77AFE04E0BAF1FF3FE0D14FF0000A0A
:105570000F982C30FBF78EFD0446002859D0314A95
:105580000D9B49EA0309138801331380FBF73AFEA8
:105590000E9B03610DF1080B2D4B826A4BF8080D31
:1055A00009EA0303058046803D4446441343013D18
:1055B000013E83628580C6805846FBF74DFE254B31
:1055C000186848B1FBF760FE05462046FBF75CFE15
:1055D0006B6943616C6100E01C605146204600F03D
:1055E000F9FF19F0200F02D0204600F04BFD19F012
:1055F000010F1FBF184A13680133136019F0400FE1
:1056000002D02046FFF72EFF19F0020F0DD02046E2
:10561000FBF7F8FD836A009043F00203836258466B
:10562000FBF71AFE204600F002FC0121204601F0A3
:10563000F8FAFEF75FF8204603B0BDE8F08F00BF30
:10564000D8100010D810012020010010F810001010
:105650009F3F3F00D0100120E410001008B5064B1A
:105660001B68002283F85420FCF73AFAFFF7C2FCCB
:10567000BDE80840FEF73EB82001001010B5044612
:1056800040682368172B10D007DC0E2B0FD0142B8B
:1056900015D1E16800F00EFE11E0222B0CD0282B72
:1056A0000DD1BDE8104000F0C2BBE06010BD214646
:1056B000BDE8104000F017BD6FF0704300E000231C
:1056C000E36010BD37B5044690B1FCF709FA2046F7
:1056D000FBF798FD02AD45F8040D0068FDF758FE94
:1056E0002846FBF7B9FD2046FBF7FAFCFEF702F867
:1056F00003B030BD73B50446002877D0FCF7F0F94D
:10570000204601F0A3F800286ED0204600F0CEFE1F
:105710000B210546204601F084FA204600F08CFD5E
:105720002046FBF76FFD0190406A08B1FCF7D8FAFC
:105730002F4B304A002199602F4B1B6852F82300F1
:10574000844208BF42F823102C4A52F823108C429E
:1057500004BF002142F82310294B1B6800222BB103
:1057600059688C4208BF5A601B68F8E70721204639
:1057700000F0ADFB019EF069FFF7BCFFF369002B61
:10578000F9D1204600F081FD1E4B186850B1FBF79F
:105790007BFD064640698442F8D12046FBF774FD44
:1057A00043697361019B9A6AD10741BF16490B682F
:1057B00003F1FF330B60930644BF144A138801A81A
:1057C00044BF03F1FF331380FBF746FD104A1388F3
:1057D0002046013B1380FBF783FC002D04DB0D4BBF
:1057E00053F8250000F04EFCFDF784FF02B070BDB9
:1057F00040CF002000110010E01000100411012023
:1058000010110120D0100120E4100010DC10001055
:10581000D8100120F810001070B5FCF761F91B4B8F
:105820001B6803B19847002502F0E6FE08B1012588
:10583000FAE7174B1B6893F8544044B1154B1C888A
:105840002CB1154B1B68C3B11B6898470124FDF7A9
:1058500051FF02F087FE064608B10125F9E7FCF783
:105860003FF974B10C4B186820B1436898470B4B53
:105870001E6006E0FEF7C8FD03E00120FEF7C4FD50
:10588000E4E7FDF737FF284670BD00BF0C1100109C
:1058900020010010DC100010C8100120D4100120DD
:1058A000034B1B685A7C034B53F82200704700BF20
:1058B00020010010F810001001289ABF024B53F885
:1058C00020000020704700BFF810001010B50446FB
:1058D00038B1FCF705F92046FBF7D6FCC469FDF7A3
:1058E00009FF204610BD10B5044638B1FCF7F8F8A2
:1058F0002046FBF7C9FC8469FDF7FCFE204610BD7D
:1059000010B5044640B1FCF7EBF82046FBF7BCFCB1
:10591000B0F90040FDF7EEFE204610BD2DE9F04F36
:1059200097B006AD002306936B60AB60FDF714F9EA
:10593000074608B10027BBE109AC2046FDF7E4F8B3
:10594000099BA14E01330CD10A9B013309D19F4A17
:1059500033680C2101FB03231A7E9DF82C309A42F8
:10596000E8D0FCF7BDF8099B002B0DDB0A9A002A52
:1059700018DB9749B1F900100B440993954BB3F923
:1059800000301A440A920DE001330BD10A9B013317
:1059900008D132688D4B0C2101FB02331A695B6917
:1059A00009920A939DF82D30DFF81C82012B98BFD5
:1059B00033603068FBF7B4FD10B9FDF79BFE77E16B
:1059C00002AA01A9D8F80000804FFBF77FFF04A8C6
:1059D00000F0F6FB019B09980A99C01A029B0990F6
:1059E000C91AD8F800300A910C2202FB03731A6915
:1059F000904208D15A69914205D11A7E9DF82C3007
:105A00009A4200F04E819DF82D20FBF747FC3B6841
:105A100013B100212046984732686F4B53F822009B
:105A200018B90A99099800F017FB7B68059013B123
:105A300005992046984769493368DFF88C9101EB56
:105A4000C30388465A68059812B3824220D058682A
:105A500000F0B0FEE0B1D9F8003008EBC30358689D
:105A600000F09EFEA0B1122394E807001293D9F82B
:105A70000030159508EBC30385E80700586812A9A4
:105A800001F0FBF8D9F8003008EBC30300225A609C
:105A9000059800F08FFE08B90025F4E03368059AF8
:105AA000DFF824A1DFF8249108EBC308C8F804202C
:105AB0004FF00C0808FB03731A7E9DF82C309A42B5
:105AC00063D0059B002B60D00598FBF79BFB9DF8EE
:105AD0002C308DF84430DAF80030039008FB039343
